:020000040800F2
:10000000C80E002015360008E5130008EF1300089D
:10001000F9130008031400080D1400080000000084
:10002000000000000000000000000000171400089D
:1000300021140008000000002B14000835140008EB
:100040003F14000849140008531400085D14000808
:1000500067140008711400087B1400088514000858
:100060008F14000899140008A3140008AD140008A8
:10007000B7140008C1140008CB140008D5140008F8
:10008000DF140008EB140008F7140008000000005B
:100090000000000003150008000000000F15000814
:1000A0001B15000827150008331500083F15000828
:1000B0004B15000857150008631500086F15000858
:1000C000000000007B1500080000000087150008F4
:1000D000931500089F150008AB150008B715000818
:1000E000C3150008CF150008DB150008E715000848
:1000F000F3150008FF1500080B16000800000000AB
:100100000000000017160008211600082D16000830
:100110003916000845160008511600085D1600083B
:100120006916000875160008811600088D1600086B
:1001300099160008A5160008000000000000000045
:10014000B11600080000000000000000BD16000805
:10015000000000000000000000000000D5160008AC
:10016000000000000000000000000000000000008F
:10017000000000000000000000000000E116000880
:10018000ED16000800000000F91600080517000829
:10019000000000000000000000000000000000005F
:1001A000000000000000000000000000000000004F
:1001B00000000000DFF80CD003F03EFA00480047D2
:1001C0008D030008C80E002008B501210F2002F0A1
:1001D0006FFD0120ADF8000002208DF80200042020
:1001E0008DF8030069464FF0904002F09FF94FF4FC
:1001F0008070ADF8000002208DF8020010208DF80C
:1002000003006946514802F091F908BD5048006B5F
:1002100040F000604E4908634E4800686FF30F00DD
:100220004C490860084600684BF67F31084349494D
:1002300008600846006820F04050086008460068E2
:1002400040F000500860081F006840F04000091F9F
:1002500008600846006840F020000860704710B54C
:100260004FF4000002F036FC3948406A40F080004C
:100270003749486210BD0320374908607047374846
:10028000817A19B10521344A116002E00121324A14
:100290001160704708B54FF4C06002F02DFA43209A
:1002A0008DF8000000208DF801008DF8020001207B
:1002B0008DF80300684602F024FA08BD08B54FF433
:1002C000C070ADF8000010208DF8030003208DF8F9
:1002D000020069464FF0904002F028F908BD7047CF
:1002E00070477047704740B14FF0A041C96941F075
:1002F00080014FF0A042D16107E04FF0A041C969F1
:1003000021F080014FF0A042D161704710B5144B2D
:1003100018681B1D19681B1D1A68A8B1114CA07024
:10032000030A2371030CA371030E2372A1720B0A3B
:1003300023730B0CA3730B0E2374A274130A23757F
:10034000130CA375130E237610BD000000040048A3
:1003500000100240046C0040680100207C06002070
:10036000E8F7FF1F7D00002008B5002100910AE09A
:10037000401E4FF46151009102E00099491E009126
:1003800000990029F9D10028F2D108BD10B5FFF776
:100390001BFF012001F02EFA30BB01214FF09040ED
:1003A00002F057F900B3FFF731FFFFF758FFFFF7EF
:1003B00071FF01F0BFFE00BF124800680528FBD1A5
:1003C00011E04FF48071104802F05FF94FF4FA70B9
:1003D000FFF7CAFF4FF480710B4802F054F94FF455
:1003E000FA70FFF7C1FFECE74FF48071064802F0A6
:1003F0004CF90648006880F308880449486880473B
:10040000002010BD680100200004004800500008D2
:1004100010B500F088FD10BD10B500F013FF10BD41
:1004200010B50C4800680C4908800846008800F0A8
:10043000010028B101200749086008494868804741
:10044000054800880448008800F0080008B101F061
:100450008FFE10BD8000005098000020DC000020BE
:1004600010B50020C7490968887200F0A9F9C6488C
:10047000406A40F08000C449486200204FF0A0412B
:10048000C8612020C149086000204FF0A041C1F898
:10049000B0007020BD491839086000204FF0A0411D
:1004A000C1F898000846D0F8940040F00200C1F866
:1004B00094000846D0F8940020F00200C1F894009F
:1004C0000846D0F8B4000006D1F8B01040EA014068
:1004D0004FF0A041D1F89C1040EA0120AC490860DF
:1004E0000846016801F50071006801F095FFA84811
:1004F000016801F540710068203001F08DFFA448CB
:10050000016801F580610068403001F085FFA04876
:10051000016801F5A0610068603001F07DFF0020F6
:100520009C4908700D204FF0A041C1F8C000052182
:100530009648103001600921001D01604FF0A04075
:10054000D0F8940040F001004FF0A041C1F89400B1
:100550000846C06940F08000C8610920C1F88400E5
:100560000846C06940F08000C86100208A490860E0
:1005700010BD10B50020894988728948C079814929
:10058000096848728148006800064FF0A041D1F820
:10059000B01040EA01404FF0A041D1F89C1040EA71
:1005A00001207B4908600846016801F50071006878
:1005B00001F032FF7648016801F540710068203093
:1005C00001F02AFF7248016801F58061006840303F
:1005D00001F022FF6E48016801F5A06100686030FB
:1005E00001F01AFF0D204FF0A041C1F8C000052115
:1005F0006648103001600921001D01604FF0A040E5
:10060000D0F8940040F002004FF0A041C1F89400EF
:100610000846D0F8940020F002005C4920390860B8
:1006200000205C49087001F078FD4FF0A040C069DF
:1006300040F080004FF0A041C86101205649086099
:1006400010BD5648817A11B10521534A1160704797
:1006500010B5544800685449884202D0022000F086
:100660008AFC10BD10B547490968C87801F055FDEE
:1006700004204949086010BD704708B500221146A2
:10068000684601F077FE08BD014629B901203D4AC0
:1006900012681082002070474448FCE770B5054698
:1006A000002438480068007800F07F00212811D12C
:1006B000FE2D0FD133480068408858B93148006892
:1006C000808838B92F480068C088012802D1AFF26D
:1006D000470401E0022070BD0CB90220FBE7294865
:1006E0000068846100212748006841820020A047FB
:1006F0000020F0E7014623480068007800F07F0002
:10070000212814D1FF2912D11E480068408870B9F1
:100710001C480068808850B91A480068C08830B901
:100720002148204A10600020214A107070470220A2
:10073000FCE70246002901DD02207047002A01DDA6
:100740000220FAE70020F8E710B5044619492046D0
:1007500001F0E0F910BD10B504461749204601F03C
:10076000D9F910BD70B5054606480068C478052C57
:1007700001DD002070BD114800EBC401284601F0E6
:10078000C9F9F7E7C801002000100240B40000508A
:10079000D8010020A8060020680100207C06002067
:1007A000E23600084C06002055534243D400002096
:1007B000B00100203001002038010020400100205D
:1007C00010B50120FFF78FFD002010BD00207047FD
:1007D0007047704700B5072801D0214908702049AB
:1007E0000978082933D2DFE801F0040A101621271E
:1007F0003334FFF7EEFF0621194A11702DE0FFF7A1
:10080000E8FF0421164A117027E00221144A5170B2
:100810000321117021E012494978491E104A517094
:100820001146497809B90421117016E005210C4AD6
:1008300011700A21517010E009494978491E084A8F
:1008400051701146497809B90621117005E000BFC1
:1008500000BF0621024A117000BF00BF00BD0000AA
:100860006D01002070B50646EE48007C00F00100E6
:1008700010B1ED4C05250BE00EB9EC4C00E0EC4C52
:10088000E848C07C242802DCE648C57C00E024253A
:100890002946204600F020FD70BDE64B99701A7382
:1008A000704710B50446204600F00CFA68B1DD49E7
:1008B000487B3A220221FFF7F0FF0121084600F0B1
:1008C0001FFB002000F057FB10BDDB4850F8240050
:1008D000000EDA490871D84850F82400000C48711D
:1008E000D54830F82400000A8871D34810F8240055
:1008F000C871D34850F82400000C4872D04830F832
:100900002400000A8872CE4810F82400C8720C2116
:10091000CA4800F0E1FC00BFD6E710B50446204607
:1009200000F0D0F968B1BF49487B3A220221FFF7B5
:10093000B4FF0121084600F0E3FA002000F01BFBA1
:1009400010BDBD4850F82400401E000EBD4908707F
:10095000B94850F82400401E000C4870B64830F8E2
:100960002400401E000A8870B34810F82400401E7E
:10097000C870B34850F82400000E0871B04850F811
:100980002400000C4871AE4830F82400000A887139
:10099000AB4810F82400C8710821AA4800F09CFC5C
:1009A00000BFCDE710B504460421A74800F094FC31
:1009B00010BD10B504460821A44800F08DFC10BD00
:1009C00070B505469748C07C122802DC9548C47C67
:1009D00000E012242146974800F07EFC70BD10B55F
:1009E00004460121002000F08BFA10BD2DE9F041F2
:1009F00004460D4617461E46B8198F4951F8241073
:100A0000884213D92A2D02D1022000F0B4FA002026
:100A100000F0B1FA212205212046FFF73EFF002118
:100A2000012000F06DFA0020BDE8F0817D4881686A
:100A3000834850F824007043814214D02A2D03D1FA
:100A4000022000F098FA02E0002000F094FA7549C4
:100A5000487B24220521FFF720FF0021012000F020
:100A60004FFA0020E0E70120DEE770B506460C46AD
:100A700015467748007820BB6A49487B2B462246BA
:100A80002821FFF7B3FF00B970BD6648007B00F076
:100A9000800040B102206E4908702A462146304647
:100AA00000F02AF90CE0022000F065FA5D49487B6D
:100AB00024220521FFF7F1FE0121084600F020FA6B
:100AC000E2E763480078022804D12A4621463046EE
:100AD00000F012F900BFD7E770B506460C46154680
:100AE0005B480078F8B94F49487B2B4622462A21BB
:100AF000FFF77CFF00B970BD4A48007B00F0800022
:100B000018B90120524908700CE0002000F033FAB7
:100B10004449487B24220521FFF7BFFE0021012024
:100B200000F0EEF9E7E74A480078012804D12A46A8
:100B30002146304600F04CF900BFDCE710B5044612
:100B40003848806848B93748007C00F0040020B974
:100B50000121002000F0D4F90CE0022000F00BFA93
:100B60003049487B24220521FFF797FE0021012010
:100B700000F0C6F910BD10B504462A48806868B177
:100B8000022000F0F8F92749487B20220521FFF7D1
:100B900084FE0021012000F0B3F903E001210020D0
:100BA00000F0AEF910BD10B50446204600F08AF8FA
:100BB00068B11C49487B3A220221FFF76EFE0121F1
:100BC000084600F09DF9002000F0D5F910BD012184
:100BD000002000F095F900BFF8E710B50446204664
:100BE00000F070F850B10F49487B3A220221FFF71C
:100BF00054FE0121084600F083F910BD00BFFCE758
:100C000010B504460748806800B100BF0549487B1D
:100C100020220521FFF741FE0021012000F070F99C
:100C200010BD00004C06002001000020060000203E
:100C300028000020570000208001002071000020C3
:100C400078010020690000204B0000204F000020A8
:100C5000B001002070B50446002514B902F00CF96B
:100C600001E0012070BD00BF2846FBE72DE9F041FF
:100C700005460E4617461C4665B9A04604EBD871DA
:100C8000C1F34F0218497018394600F06FFB00207D
:100C9000BDE8F0810120FBE72DE9F04105460E4655
:100CA00017461C4665B9A04604EBD871C1F34F0244
:100CB0000D497018394600F07AFB0020BDE8F0813C
:100CC0000120FBE7014669B94FF4F070074A106054
:100CD0004FF40070064A10604FF47030054A1060FF
:100CE000002070470120FCE700440008800100203C
:100CF000780100207001002070B504460D461646AC
:100D00007048007870B9704850F8240068436F4903
:100D100008606D4850F8240070436D490860012058
:100D2000684908706748007801283ED16948006822
:100D3000C0B9654830F8240083B2674A6348016847
:100D40002046FFF7A9FF40220121634801F0AEFAD7
:100D50005D4850F8240040385E49086040205F49F3
:100D6000086011E05C495D4A126888184022012140
:100D700001F09CFA574800684038564908605748C7
:100D800000684030554908605048006840304F497D
:100D900008604F48006840384D49086050488068F6
:100DA00040384F498860FFF79AFA4948006870B99F
:100DB0000020484908604949086044490860032008
:100DC0004849087000203F490870FFF789FA70BD54
:100DD00070B504460D4616463A48007870B93A4850
:100DE00050F82400684340490860374850F8240010
:100DF00070433E490860012032490870314800784C
:100E000001284CD100203A49086011E0394838499E
:100E10000968405C3049384A12688854364800688E
:100E2000401C3549086032480068401C3049086061
:100E30002F480068314909888842E7D32A4800686A
:100E40002E490988084428490860284800682B4929
:100E50000988401A254908601B4850F82400096891
:100E6000B1FBF0F200FB121080B9002022490860AB
:100E7000154830F8240083B2134850F824001A4A69
:100E80001268111A144A2046FFF7F0FE14488068D1
:100E90001A490988401A12498860FFF720FA134856
:100EA000006818B10F48007804280AD100201249C0
:100EB0000860012100F024F8002002490870FFF7C3
:100EC0000FFA70BD9C01002078010020A0010020D5
:100ED000A40100208C0100200C02002090010020C1
:100EE0006C060020B0010020A8010020AC01002009
:100EF000980100200C06002094010020B20100207F
:100F000070B505460C46FE48FE4908600846057364
:100F10000D22012101F0CAF90520FB4908700CB12E
:100F20000020087070BD10B5F748007802280BD07B
:100F3000032818D0042802D0052819D100E000BFEA
:100F40000020F149087014E0F048C07B282808D13F
:100F5000EE49487BEE490A68EE490968FFF785FDCE
:100F600000BF00BF05E001210020FFF7C9FF00E03E
:100F700000BF00BF10BD20B1012803D0022803D15B
:100F800001E002E001E000E000BF00BF704710B5E3
:100F9000002404E0E048005DDC490855641CDF489B
:100FA00000888442F6D3DE480068062804D1DC4875
:100FB0000068401CDA490860D4484068D14948605C
:100FC000D24880688860D54800881F280FD002204A
:100FD000FFF7D1FF0020CD490860487B1A22052188
:100FE000FFF75BFC00210120FFF78AFF10BDC74817
:100FF000C07B282803D0C548C07B2A2816D1C34807
:10100000407C0106C148807C41EA0041BF48C07C69
:1010100041EA0020BD49097D0843BE490860BB483C
:10102000C17D807D41EA0020B9490860B748006869
:10103000BC4988426FD1B548407BBB4909688842AA
:1010400007D8B248807B012803DBB048807B10289A
:101050000DDD0220FFF78FFFAC49487B24220521DC
:10106000FFF71BFC00210120FFF74AFFE8E0A7483B
:10107000C07B25285FD01BDC15286FD00EDC08282C
:101080006DD006DC00285BD0032830D0042867D15F
:1010900076E00A2873D01228F9D12DE01A380A28F0
:1010A0005ED2DFE800F0392EB17D33B1B1B1B1438A
:1010B0008A286FD00EDC552867D006DC282844D05B
:1010C0002A284ED02F28E2D154E05A2829D0882847
:1010D000DDD176E0A8286DD004DC8F286FD09E2863
:1010E000D5D173E0AA287BD0AF28D0D182E0874940
:1010F000487BFFF765FC95E08449487BFFF7B2FB2E
:1011000090E08249487BFFF76AFC8BE07F49487B8F
:10111000FFF765FC86E086E07C49487BFFF742FCF0
:1011200080E07A49487BFFF744FC7BE07749487BC5
:10113000FFF7B7FB76E07549487BFFF7EEFB71E000
:101140007249487BFFF72FFD6CE07049487B70497E
:101150000A6870490968FFF788FC63E01BE024E037
:1011600052E06A49487B6A490A686A490968FFF798
:10117000B3FC57E06549487BFFF7E0FC52E02AE00A
:101180006249487BFFF729FD4CE06049487BFFF747
:1011900037FD47E029E05D49487BFFF731FD41E03D
:1011A0005A49487BFFF72CFD3CE05849487BFFF744
:1011B00027FD37E05549487BFFF722FD32E01EE06E
:1011C0000EE05249487BFFF71BFD2BE04F49487B5F
:1011D000FFF716FD26E04D49487BFFF711FD21E0A2
:1011E0004A49487BFFF70CFD1CE04849487BFFF764
:1011F00007FD17E04549487BFFF702FD12E0434930
:10120000487BFFF7FDFC0DE00220FFF7B4FE3F49ED
:10121000487B20220521FFF740FB00210120FFF73A
:101220006FFE00BF0CE00220FFF7A5FE3749487BA8
:1012300020220521FFF731FB00210120FFF760FE8E
:1012400000BFD3E610B53148C47B384881783848B0
:101250000068403050F83100000C304908800846E2
:10126000028802212C4801F085F82D480068401CB6
:101270002B4908602448007810B101281CD102E0F5
:10128000FFF785FE26E02A2C08D12049487B20491B
:101290000A6820490968FFF71FFC1BE00120FFF7DF
:1012A0006AFE1A49487B24220521FFF7F6FA00213D
:1012B0000220FFF725FE0DE00220FFF75CFE134938
:1012C000487B24220521FFF7E8FA00210220FFF7DE
:1012D00017FE00BF00BF10BD70B505460C46224684
:1012E0000121284600F0E2FF032007490870054865
:1012F0008068001B034988600020087370BD0000EF
:10130000555342536C060020B00100204C060020CB
:10131000B8010020B40100200C060020B20100201A
:10132000BC01002055534243D40000209806002001
:10133000D801002001462848814201D20888704720
:101340004FF6FF70FBE72DE9F04105460E461746C4
:10135000002407E036F81410284601F0C0FEAD1C4A
:10136000601C84B2BC42F5DBBDE8F0812DE9F041A0
:1013700004460D461646194FB4F1006F01D3BC4226
:1013800001D3BDE8F081144884420ED901F074FD08
:10139000C4F3090010B9204601F0A8FD32462946E1
:1013A0002046FFF7D0FF01F06DFD00BFE9E770B503
:1013B00003460C4615460A488668002207E0184690
:1013C000FFF7B8FF24F812009B1C501C82B2AA42FF
:1013D000F5DB0348866070BD004C0008000008087B
:1013E0006C06002010B5CA488468A04710BD10B52F
:1013F000C748C468A04710BD10B5C5480469A047D8
:1014000010BD10B5C2484469A04710BD10B5C04812
:101410008469A04710BD10B5BD48C46AA04710BD7F
:1014200010B5BB48046BA04710BD10B5B848846B1D
:10143000A04710BD10B5B648C46BA04710BD10B58D
:10144000B348046CA04710BD10B5B148446CA04728
:1014500010BD10B5AE48846CA04710BD10B5AC48A7
:10146000C46CA04710BD10B5A948046DA04710BDBD
:1014700010B5A748446DA04710BD10B5A448846DB1
:10148000A04710BD10B5A248C46DA04710BD10B54F
:101490009F48046EA04710BD10B59D48446EA047FC
:1014A00010BD10B59A48846EA04710BD10B598487D
:1014B000C46EA04710BD10B59548046FA04710BD7D
:1014C00010B59348446FA04710BD10B59048846F85
:1014D000A04710BD10B58E48C46FA04710BD10B511
:1014E0008B4880300468A04710BD10B58848843010
:1014F0000468A04710BD10B5854888300468A0472F
:1015000010BD10B5824894300468A04710BD10B5D6
:101510007F489C300468A04710BD10B57C48A030BF
:101520000468A04710BD10B57948A4300468A047EE
:1015300010BD10B57648A8300468A04710BD10B59E
:101540007348AC300468A04710BD10B57048B03087
:101550000468A04710BD10B56D48B4300468A047BA
:1015600010BD10B56A48B8300468A04710BD10B56A
:101570006748BC300468A04710BD10B56448C4304B
:101580000468A04710BD10B56148CC300468A0477E
:1015900010BD10B55E48D0300468A04710BD10B52E
:1015A0005B48D4300468A04710BD10B55848D83007
:1015B0000468A04710BD10B55548DC300468A0474A
:1015C00010BD10B55248E0300468A04710BD10B5FA
:1015D0004F48E4300468A04710BD10B54C48E830CF
:1015E0000468A04710BD10B54948EC300468A04716
:1015F00010BD10B54648F0300468A04710BD10B5C6
:101600004348F4300468A04710BD10B54048F83096
:101610000468A04710BD10B53E480468A04710BD3F
:1016200010B53C48001D0468A04710BD10B53948EE
:1016300008300468A04710BD10B536480C30046867
:10164000A04710BD10B5334810300468A04710BD46
:1016500010B5304814300468A04710BD10B52D48AF
:1016600018300468A04710BD10B52A481C30046823
:10167000A04710BD10B5274820300468A04710BD12
:1016800010B5244824300468A04710BD10B5214887
:1016900028300468A04710BD10B51E482C300468DF
:1016A000A04710BD10B51B4830300468A04710BDDE
:1016B00010B518483C300468A04710BD10B5164856
:1016C000007820B1134848300468A04701E0FEF7D5
:1016D000A7FE10BD10B50F4858300468A04710BDD4
:1016E00010B50C4878300468A04710BD10B5094803
:1016F0007C300468A04710BD10B5064884300468EB
:10170000A04710BD10B5034888300468A04710BD3D
:1017100000500008045100080000002010B501210D
:10172000080701F020FB00214FF0805001F01BFB67
:1017300010BD30B13849096841F48071364A1160F2
:1017400005E03549096821F48071334A116070471A
:10175000012806D13049096841F010012E4A116074
:1017600005E02D49096821F010012B4A11607047EE
:1017700001460020284A106820F4F0500843106009
:10178000704730B12449496841F48071224A516060
:1017900005E02149496821F480711F4A5160704772
:1017A00010B5024600201C4B186820F003001043BF
:1017B00018601A4B1B6843F00403184C236001297E
:1017C00001D130BF00E020BF10BD1348006840F0D9
:1017D0000400114908600846006840F002000860F3
:1017E0000E48006840F004000C49086000BF00BFCC
:1017F00030BF704701460020074A52680A400AB1CC
:10180000012000E0002070470349096841EA800197
:10181000014A1160704700000070004010ED00E0C8
:1018200010B504462CB90120FE4909680882002041
:1018300010BDFD49096808688047FA4800680A3009
:10184000F6E710B5F7480068C078F849497888424B
:1018500013DCF4480068807878B9F2480068808822
:1018600058B9F0480068C078EE4909688872EE49B6
:10187000096848688047002010BD0220FCE710B5C9
:1018800004462CB90120E74909680882002010BDF0
:10189000E549096888688047E24800680C30F6E747
:1018A00010B5E04B1B68D978DE4B1B685879E04BCC
:1018B0001B689A6990470446DA480068807AE8B164
:1018C0003CB9D8480068007918B9D64800688078D3
:1018D00008B1022010BD8CB9D3490968C868804797
:1018E000D04800684079CF490968C872CD4800687F
:1018F000C078CC49096808730020EBE70220E9E7CB
:1019000010B504462CB90220C64909680882002097
:1019100010BD0020C7490880C2480068007800F068
:101920007F00E0B9BF490968487A00F0200129B179
:10193000C049097841F00201BE4A117000F040012F
:1019400031B1BC49097801F0FE01BA4A117005E0D5
:10195000B849097841F00101B64A117033E0B14845
:101960000068007800F07F00012801D1B148CFE77E
:10197000AC480068007800F07F00022821D1A94A15
:101980001268517901F00F0001F0800262B1AA4A99
:1019900052F82020C2F3400292B1A64A127842F0D7
:1019A0000102A44B1A700BE0A34A52F82020C2F3A4
:1019B00040022AB19F4A127842F001029D4B1A70F0
:1019C00001E00020A4E79849096808698047994820
:1019D0009EE72DE9F04793480068007800F07F0803
:1019E000B8F1000F0AD18F480068407A00F0DF009C
:1019F0008C49096848720020BDE8F087B8F1020FF1
:101A000053D188480068408818B986480068007932
:101A100008B10220F0E7DFF81492824800684779A5
:101A200027F080052C467F480068407900F0800050
:101A300028B1814850F82400C0F3400604E07E48F5
:101A400050F82400C0F3400699F80000A84204D9D9
:101A50001EB174480068807A08B90220CCE707F00C
:101A6000800070B1744850F82400C0F34000B0B159
:101A7000714850F8240020F002016F4840F824100B
:101A80000DE06D4850F82400C0F3400038B16A48BA
:101A900050F8240020F00201674840F82410624901
:101AA0000968486980470020A6E700BF0220A3E735
:101AB0002DE9F0415B480068467926F08004254610
:101AC0005D4850F82500C0F3400758480078A84208
:101AD00008D954480068408820B91FB151480068AF
:101AE000807A10B90220BDE8F0814F490968886901
:101AF00080470020F7E710B54A480068407A40F078
:101B0000200048490968487247490968C869804700
:101B1000002010BD10B5024642480068438A32B921
:101B20008888C01A3F4C24682082002010BD0868B5
:101B30001844FBE72DE9F0413A48006800F1100431
:101B40002688A068A0B19EB1A588B54200D93546C7
:101B5000A8B2A168884707462088401B208060887B
:101B600028446080AAB20021384600F003FC00BF80
:101B70002088A188884204DB03202A49096808726A
:101B800015E02088002804DD052026490968087230
:101B90000DE0208858B90620224909680872012002
:101BA0002649087000221146254800F07FFBBDE859
:101BB000F0812DE9F0411B48006800F110042688EF
:101BC00018480068077A8EB9042F0FD11D48007895
:101BD000012809D100221146194800F067FB00BF17
:101BE00000201849087000E0072719E0A588AE42D8
:101BF00001D8042000E002200746B54200D935464E
:101C0000A8B2A16888478046AAB20021404600F0E9
:101C10004DFB2088401B208060882844608000BFE6
:101C2000004911E0C8010020D4010020D8000020A4
:101C3000CC010020C0010020C0000050B8060020E8
:101C4000DC010020C201002009680F72BDE8F081AC
:101C500070B50226FE4800684478FD4800680078A8
:101C600000F07F0000284AD1092C03D1FFF7E9FDDD
:101C7000064665E0052C14D1F5480068C0787F2839
:101C80000BDCF3480068807838B9F1480068808838
:101C900018B9EF480068807A08B1082567E0002687
:101CA0004EE0032C14D1EA480068C07801280DD119
:101CB000E7480068808848B9E5480068407A00F045
:101CC000200018B1FFF717FF064639E0022637E07B
:101CD000012C35D1DE480068C07801280DD1DC48E0
:101CE0000068808848B9DA480068407A00F020002F
:101CF00018B1FFF76EFE064622E0022620E0D44827
:101D00000068007800F07F00012805D10B2C17D166
:101D1000FFF7C6FD064613E0CD480068007800F0E6
:101D20007F0002280BD1012C03D1FFF752FE06469B
:101D300006E0032C04D1FFF7BBFE064600E00226B6
:101D40004EB1E0B2C34A1268516988470646032E75
:101D500001D109250BE006B109E006250120BE49A5
:101D6000087000221146BD4800F0A0FA00BFB84933
:101D700009680D7270BD2DE9F84FB54800684578C7
:101D80004FF0000A0026062D1BD1B14800680078EC
:101D900000F07F00002813D1AD4909688878012838
:101DA00003D1AC490968CE690AE0022803D1A949E8
:101DB00009680E6A04E0032802D1A64909684E6A40
:101DC00089E0002D57D1A24800684088002852D1F0
:101DD0009F480068C08802284DD19D48006800795E
:101DE000002848D19A480068007800F07F0030B998
:101DF00097480068808810B9AFF2FB466BE09448C2
:101E00000068007800F07F00012811D1904909682E
:101E10004879904909688A690021904700285AD179
:101E20008B480068807A002855D0AFF22B5652E0DC
:101E300087480068007800F07F0002284BD1844872
:101E40000068407900F00F0781480068407900F091
:101E50007008834850F82700C0F340098148007893
:101E6000B84238D9B8F1000F35D1B9F1000F32D0EE
:101E7000AFF273562FE0082D08D17548006800783E
:101E800000F07F0038BBAFF2676624E00A2D22D154
:101E90006F480068007800F07F0001281BD16C4873
:101EA0000068807AB8B16A480068408898B9684884
:101EB0000068007978B966480068C08801280AD1AE
:101EC000634909684879634909688A69002190472C
:101ED00008B9AFF2556656B15D480068A0F812A087
:101EE0005B48006886610020B04700240FE0584A34
:101EF00012685078574A1268116988470446032CC3
:101F000005D10920524909680872BDE8F88F504888
:101F10000068008A4FF6FF71884204D109204C49BD
:101F200009680872F1E7022C03D049480068008A6A
:101F300020B90820464909680872E6E74448006865
:101F4000007800F08000E0B341480068C08800904D
:101F50003F480068008A0099884204D93C490098AB
:101F60000968088223E03A480068008A384909680D
:101F7000C98888421BDA36480068008A35490968F2
:101F800091F82C10884203DA0020374908700EE0DF
:101F90002F480068008A2F49096891F82C1090FB9F
:101FA000F1F201FB120010B901202F4908702948F5
:101FB000006890F82C10264800688182FFF7F9FD30
:101FC0000AE0FFE722480068C088214909680882C2
:101FD00003201F490968087200BF96E71C48006883
:101FE000007A092801D1012070470020FCE710B5D4
:101FF00017480068007A092822D0184C08220021CE
:10200000204600F0B7F92078114909680870607817
:102010000F4909684870E078A17840EA01200C492E
:10202000096848806079217940EA012008490968F7
:102030008880A079E17940EA012005490968C880D3
:10204000012003490968087201480068C0880DE052
:10205000C8010020CC010020B8060020DC010020CF
:10206000C0000050D8000020C201002010B9FFF7C6
:10207000EFFD01E0FFF77FFEFFF7B0FF10BD10B5E9
:1020800028480068047A022C01D0042C05D1FFF7FF
:1020900090FD24480068047A16E0062C13D12148EC
:1020A00000684078052809D11E480068007800F0D3
:1020B0007F0018B91C490968086A80471B490968EC
:1020C0008868804700E00824164909680C72FFF709
:1020D00085FF10BD10B513480068047A032C01D0A9
:1020E000052C05D1FFF726FD0E480068047A0EE0A6
:1020F000072C05D10D490968C8688047082406E007
:10210000022C01D0042C01D1082400E00824054948
:1021100009680C72FFF762FF10BD0549086070473F
:1021200070470000C8010020D4010020CC0100202D
:102130009800005010B50848084908600220096856
:1021400008720748074908600748084908600549B8
:1021500009680868804710BD7C060020C80100207F
:10216000DC000020CC0100200C010020D401002064
:102170002DE9F041002700244548056808204FF06C
:10218000A041C1F88000C5F30317002F3BD1002008
:1021900040490870C5F3C00050B9C5F380003E49FE
:1021A0000870084600783D49096851F830400CE055
:1021B000C5F3800639480068103050F836400021D9
:1021C00036480068103040F83610C4F383040D2CF4
:1021D0000FD12F48001D006820F020004FF0A041D3
:1021E000C1F8940001202E490870FFF700FFBDE8F8
:1021F000F081012C02D1FFF76DFFF8E7092C44D1E3
:10220000FFF73DFFF3E7E7B322490F70C5F3C000C6
:1022100080B9C5F380002049C855204800681D4991
:10222000097800EB41101C491A4A1278895C50F871
:10223000314014E0C5F38006184800681549097854
:1022400000EB4110103050F8364000211348006870
:10225000104A127800EB4210103040F83610C4F3E8
:102260008304012C06D10B490978491E0D4A52F806
:1022700021008047092C08D106490978491E0A4ADD
:1022800000E002E052F82100804700BFAFE770474E
:1022900090000050C401002098060020D8010020C2
:1022A000B8060020B80000209C000020F0B5564D74
:1022B0002D6805EB41151035544E765C05EBC605CF
:1022C0006C68514D2D6805EB411510354F4E765C0D
:1022D00055F8365005F47F464B4D2D6805EB4115FA
:1022E00010354A4F7F5C45F83760002303E00578DE
:1022F000E554401C5B1C9342F9D3434D2D6805EB1C
:1023000041151035414E765C55F836501604404F55
:102310007F5C46EA871635433B4E366806EB41162E
:1023200010363A4F7F5C46F83750394D6D5C0DB929
:10233000012500E00025364E7554334D2D6805EB20
:1023400041151035314E765C55F8365045F0800613
:102350002D4D2D6805EB411510352C4F7F5C45F850
:1023600037602A4D6D5C0DB9012500E00025274E30
:102370007554F0BDF0B51346234D2D6805EB41159E
:10238000244E765C05EBC6056C68002203E0A55C74
:102390000570401C521C9A42F9D31B4D2D6805EB69
:1023A00041151C4E765C55F8365005F47F45164EA7
:1023B000366806EB4116174F7F5C46F83750124DD2
:1023C0002D6805EB4115134E765C55F8365045F4F3
:1023D00080050D4E366806EB41160E4F7F5C46F8C1
:1023E0003750094D2D6805EB41150A4E765C55F8BE
:1023F000365045F08006044D2D6805EB4115054F1C
:102400007F5C45F83760F0BDD8010020A8060020A9
:10241000B80600209806002010B50A460023036085
:102420004260036843F480030360036843F0800361
:10243000036000238360836843F480038360436800
:102440004033C360836843F040038360836843F094
:102450008003836000230361436880334361002469
:1024600084614468C034C46100210BE000244369E6
:102470005C54C3695C540023446863540024C368FB
:102480005C54491C4029F1DB10BD024641EA0220A0
:1024900070470146CAB20B1243EA0220704700009F
:1024A00010B504469249601A8C4220D006DCB4F183
:1024B000904F0AD08F482044A0BB0FE0B0F5806F4A
:1024C0001ED0B0F5006F2ED123E00121084600F0A8
:1024D000EFFB0021012000F0EBFB25E001210220B1
:1024E00000F0E6FB0021022000F0E2FB1CE00121ED
:1024F000042000F0DDFB0021042000F0D9FB13E0F4
:102500000121082000F0D4FB0021082000F0D0FBBE
:102510000AE00121102000F0CBFB0021102000F088
:10252000C7FB01E0FFE700BF00BF10BD2DE9F04190
:10253000024600250026002000230024002791F8F1
:1025400003C00CF00F0591F803C00CF0100CBCF1A7
:10255000000F03D091F802C04CEA050591F800C0C5
:10256000BCF1000F31D0146800202BE04FF0010CBB
:102570000CFA00F3B1F800C00CEA03069E4220D129
:1025800083004FF00F0C0CFA03F7BC4305FA03FC71
:102590004CEA040491F803C0BCF1280F06D14FF0B7
:1025A000010C0CFA00FCC2F814C00AE091F803C058
:1025B000BCF1480F05D14FF0010C0CFA00FCC2F839
:1025C00010C0401C0828D1D31460B1F800C0BCF181
:1025D000FF0F34DD546800202EE000F1080C4FF0AE
:1025E000010808FA0CF3B1F800C00CEA03069E4299
:1025F00021D183004FF00F0C0CFA03F7BC4305FA0E
:1026000003FC4CEA040491F803C0BCF1280F05D187
:1026100000F1080C08FA0CF8C2F8148091F803C015
:10262000BCF1480F07D100F1080C4FF0010808FA7F
:102630000CF8C2F81080401C0828CED35460BDE8C6
:10264000F0814FF6FF710180022181700421C17079
:1026500070470246002093680B400BB1012000E058
:10266000002070470146886880B27047024600200B
:10267000D3680B400BB1012000E0002070470146F9
:10268000C86880B2704701617047416170470AB104
:10269000016100E041617047C16070474FF48032D2
:1026A0000A43826181618261826982697047F0B503
:1026B000002300244D07ED0E02FA05F3CD105DB99D
:1026C000056A4E07F70E0F26BE40B5430562056A40
:1026D00045EA030404620AE0456A4E07F70E0F2636
:1026E000BE40B5434562456A45EA03044462F0BD15
:1026F0000008004800FCFFB734490143344A116028
:10270000704770B5002100230F22C47804B3304C09
:10271000246804F4E064C4F5E064210AC1F1040310
:10272000CA40447804FA03F1847814402143090133
:10273000284C0678A155047804F01F050124AC400C
:1027400005786D11AD0005F1E025C5F8004109E0FF
:10275000047804F01F050124AC401F4D0678761163
:1027600045F8264004786411A40004F1E024D4F86C
:10277000003170BD194A0A400243154B1B1F1A60F5
:10278000704739B1124A121D12680243104B1B1DCB
:102790001A6006E00E4A121D126882430C4B1B1D84
:1027A0001A607047042808D14FF0E021096941F010
:1027B00004014FF0E022116107E04FF0E0210969C8
:1027C00021F004014FF0E022116170470000FA058A
:1027D0000CED00E000E400E080E100E080FFFF1F7E
:1027E000F748006840F00100F54908600846406875
:1027F000F4490840F249486008460068F249084038
:10280000EF4908600846006820F480200860084608
:10281000406820F4FE004860002088607047E84966
:10282000096821F48031E64A11601146096821F4F3
:1028300080211160B0F5803F03D0B0F5802F0ED11C
:1028400006E0DF49096841F48031DD4A116007E0A4
:10285000DB49096841F4A021D94A116000E000BFBA
:1028600000BF704710B501460022002300204A1126
:10287000012A02D1D24C236806E0022A02D1D04CB0
:10288000636B01E0CE4CA36B01F01F020124944066
:102890001C400CB1012000E0002010BD38B5002024
:1028A00000900024002500BF3120FFF7DBFF054624
:1028B0000098401C00901DB90098B0F5A06FF3D1AE
:1028C0003120FFF7CFFF08B1012400E000242046AB
:1028D00038BD01460020BA4A106820F0F80040EAEE
:1028E000C10010607047012806D1B549096841F060
:1028F0000101B34A116005E0B149096821F0010105
:10290000AF4A1160704710B503460020AC4C2068F8
:10291000AE4C20408C0644EA02542043A84C206070
:1029200010BD70B506460C460025A548456825F43F
:102930007C153543456024B9032207213046FFF753
:10294000E2FFB4F5802F04D1012205213046FFF7C4
:10295000DAFFB4F5002F04D1012207213046FFF73A
:10296000D2FFB4F5402F04D1012209213046FFF7F0
:10297000CAFFB4F5801F04D101220B213046FFF7B6
:10298000C2FFB4F5A01F04D101220D213046FFF78C
:10299000BAFFB4F5C01F04D101220F213046FFF762
:1029A000B2FFB4F5E01F04D1012211213046FFF738
:1029B000AAFFB4F5001F04D1012213213046FFF70E
:1029C000A2FFB4F5101F04D1012215213046FFF7F4
:1029D0009AFFB4F5201F04D1012217213046FFF7DA
:1029E00092FFB4F5301F04D1012219213046FFF7C0
:1029F0008AFFB4F5401F04D101221B213046FFF7A6
:102A000082FFB4F5501F04D101221D213046FFF78B
:102A10007AFFB4F5601F04D101221F213046FFF771
:102A200072FFB4F5681F04D1012208213046FFF778
:102A30006AFFB4F5741F04D1022203213046FFF768
:102A400062FF70BD30B15E49096841F080715C4A37
:102A5000116005E05A49096821F08071584A1160F7
:102A6000704701460020564A506820F00300084392
:102A7000506070475248406800F00C0070470146B3
:102A800000204F4A506820F0F00008435060704723
:102A9000014600204A4A506820F4E0600843506034
:102AA000704701460020464A506820F4605040EAD2
:102AB000C1005060704731B1414A926842EA002239
:102AC0003F4B9A6005E03E4A926822EA00223C4B66
:102AD0009A6070473A49496821F44001384A516088
:102AE000114649680143516070473549C96B01433C
:102AF000334AD163704701460020314A506820F4C0
:102B000040400843506070472D49496B21F0010156
:102B10002B4A51631146496B21F001015163012891
:102B200002D004280ED106E02549496B41F001018D
:102B3000234A516307E02249496B41F00501204ACD
:102B4000516300E000BF00BF704730B11C49896B82
:102B500041F001011A4A916305E01949896B21F09E
:102B60000101174A916370471549496B0143144AA3
:102B70005163704730B11249496B41F40041104A2A
:102B8000516305E00E49496B21F400410C4A516341
:102B90007047F0B500210024002300250022084ED4
:102BA000766806F00C0121B1042905D0082937D137
:102BB00010E0074E066036E0054E066033E0000088
:102BC000001002400000FFF8FFFFF6FEFFFF8F033A
:102BD00000127A008C4E3668012707EB96648A4E05
:102BE0003668C6F30256731C874E766806F4803545
:102BF0002DB9864E6643B6FBF3F606600FE0824EB3
:102C0000766806F400362EB1814E6643B6FBF3F6C5
:102C1000066004E07F4E6643B6FBF3F6066002E012
:102C20007C4E066000BF00BF774E766806F0F0016C
:102C30000909794E725C0668D6404660724E766825
:102C400006F4E061090A744E725C4668D6408660FC
:102C50006D4E766806F46051C90A6F4E725C466824
:102C6000D640C660684E766806F44041890B6B4ECC
:102C7000725CC668B6FBF2F60661F0BD29B1624A25
:102C8000126A0243604B1A6204E05F4A126A82438E
:102C90005D4B1A62704729B15B4A526A02435A4B34
:102CA0005A6204E0584A526A8243574B5A6270474C
:102CB00029B1554A926A0243534B9A6204E0524A40
:102CC000926A8243504B9A62704729B14E4AD26A47
:102CD00002434D4BDA6204E04B4AD26A82434A4BCC
:102CE000DA62704729B1484A126B0243464B1A63B5
:102CF00004E0454A126B8243434B1A63704729B183
:102D0000414AD2680243404BDA6004E03E4AD2684E
:102D100082433D4BDA60704729B13B4A1269024356
:102D2000394B1A6104E0384A12698243364B1A6102
:102D3000704729B1344A52690243334B5A6104E067
:102D4000314A52698243304B5A61704729B12E4A49
:102D5000926902432C4B9A6104E02B4A92698243A8
:102D6000294B9A61704729B1274AD2690243264B01
:102D7000DA6104E0244AD2698243234BDA61704766
:102D8000012806D12049496B41F480311E4A516324
:102D900005E01D49496B21F480311B4A516370479E
:102DA000012806D11849096841F40021164A11602A
:102DB00005E01549096821F40021134A11607047A4
:102DC0001149496821F0E0610F4A51601146496894
:102DD00041EA0061516070470B48806B40F08070A1
:102DE00009498863704701460020074A92680A40F3
:102DF0000AB1012000E0002070470349896841EAD8
:102E00000041014A9160704700100240001BB7006A
:102E100000093D0000127A00E4010020F4010020C6
:102E200008B500200090FF20009002E00098401EAE
:102E3000009000980028F9D108BD01460020F74A0B
:102E4000106800F03800084310607047F3490968C3
:102E500021F00801F14A116011460968014311602F
:102E60007047EE49096821F01001EC4A11601146E3
:102E70000968014311607047E948E8494860E9483A
:102E800048607047E548006940F08000E349086108
:102E900070470420E149C96801F0010109B101202E
:102EA0000EE0DE49C96801F0040109B1022007E023
:102EB000DA49C96801F0100109B1032000E00420DB
:102EC000704770B504460425FFF7E3FF054605E0AB
:102ED000FFF7A6FFFFF7DDFF0546641E012D01D1B8
:102EE000002CF5D104B90525284670BD70B50546FE
:102EF000042440F6FF70FFF7E4FF0446042C19D1C8
:102F0000C648006940F00200C449086108464561AE
:102F1000006940F04000086140F6FF70FFF7D1FF04
:102F20000446012C06D0BD48006943F6FD710840F7
:102F3000BA490861204670BD10B504246006B7493F
:102F4000486140F6FF70FFF7BCFF0446042C18D11F
:102F5000B248006940F00400B049086108460069C1
:102F600040F04000086140F6FF70FFF7AAFF0446FA
:102F7000012C06D0A948006943F6FB710840A74917
:102F80000861204610BD10B50424A748A349486134
:102F90004014FFF796FF0446042C3BD1A0489F49FC
:102FA0008860A04888600846006940F020000861F9
:102FB0000846006940F04000086140F6FF70FFF7E6
:102FC00080FF0446042C1CD19448006943F6DF714D
:102FD0000840924908610846006940F01000086105
:102FE000A520914908800F20FFF76BFF0446012CB4
:102FF00010D08A48006943F6EF710840874908619C
:1030000008E0012C06D08548006943F6EF710840BE
:1030100082490861204610BD10B5042483487F49C9
:10302000486108460069824908437C49086140F6C6
:10303000FF70FFF746FF0446042C1CD178487749FF
:103040008860784888600846006940F02000086180
:103050000846006940F04000086140F6FF70FFF745
:1030600030FF0446012C06D06C48006943F6EF712E
:1030700008406A490861204610BD70B505460E46F5
:1030800004240F20FFF71DFF0446042C25D16348BC
:10309000006940F00100614908612E800F20FFF7B0
:1030A00010FF0446042C0FD1300C68800F20FFF76E
:1030B00008FF0446012C10D05848006943F6FE7101
:1030C00008405649086108E0012C06D053480069C1
:1030D00043F6FE71084051490861204670BD70B545
:1030E00005460E4604240F20FFF7EBFE0446042C91
:1030F00013D14A48006940F00100484908612E8018
:103100000F20FFF7DEFE0446012C06D0434800697D
:1031100043F6FE71084041490861204670BD70B514
:1031200005460E4604240F20FFF7CBFE0446042C70
:1031300017D13B48394988603A4888600846006999
:1031400040F0100008612E800F20FFF7BAFE044601
:10315000012C06D03148006943F6EF7108402F4931
:103160000861204670BD2DE9F04704464FF6FF7612
:103170003746B046B1460425E443E6B2C4F3072718
:10318000C4F307484FEA14690F20FFF79AFE05467B
:10319000042D40D122482149886022488860084691
:1031A000006940F010000861FF2E06D01E4808306C
:1031B00006800F20FFF785FE0546042D08D1FF2F5E
:1031C00006D019480A3007800F20FFF77AFE05461F
:1031D000042D0AD1B8F1FF0F07D013480C30A0F826
:1031E00000800F20FFF76DFE0546042D0AD1B9F1CE
:1031F000FF0F07D00C480E30A0F800900F20FFF70B
:1032000060FE0546012D06D00448006943F6EF71C3
:103210000840024908612846BDE8F08700200240C6
:1032200023016745AB89EFCD00F8FF1F00F4FF1FB6
:103230000000BAA570B505460424594859494861AB
:103240004014FFF73EFE0446042C41D15648554930
:103250008860564888600846006940F02000086190
:103260000846006940F04000086140F6FF70FFF733
:1032700028FE0446042C22D14A48006943F6DF7137
:103280000840484908610846006940F0100008619C
:103290001DB100204249088002E0A5204049088075
:1032A00040F6FF70FFF70DFE0446012C10D03D489C
:1032B000006943F6EF7108403A49086108E0012CC3
:1032C00006D03848006943F6DF7108403549086187
:1032D000204670BD2DE9F04107460D4616460424F0
:1032E000314830498860314888600F20FFF7E9FD98
:1032F0000446042C1AD12B48006940F010002949DB
:10330000086147EA0500304340F0F8002449891C71
:1033100008800F20FFF7D5FD0446012C06D0214878
:10332000006943F6EF7108401E4908612046BDE878
:10333000F0811C48C069800870471A48006A7047CD
:1033400000201849096801F0200109B1012000E0BE
:103350000020704729B1134A12690243114B1A61C8
:1033600004E0104A126982430E4B1A61704701460D
:103370000020012908D10B4AD26902F001020AB1EA
:10338000012008E0002006E0064AD2680A400AB19F
:10339000012000E0002070470249C860704700002B
:1033A00000F8FF1F0020024023016745AB89EFCDE5
:1033B0002DE9F043054616461F4608464FF0000C1F
:1033C000002423E0002319E003F1010805FB08F8BD
:1033D00004F10109B8FBF9F28A4202D9A2EB010813
:1033E00001E0A1EB02084246904202D91046337038
:1033F0003C7010B94FF0010C02E05B1C402BE3D392
:1034000000BFBCF1000F00D002E0641C042CD9D333
:1034100000BFBDE8F0833FB500200390012002907B
:103420007148006820F018006F490860084600687D
:1034300040F00100086000BF6B48406800F00300E6
:103440000228F9D169486A490860029801287CD1AC
:103450006848006840F01000664908600846006847
:1034600020F007000860624800686349B0FBF1F48F
:10347000072C00D907245F48006820435D49086095
:103480005E4840685D4948600846406848600846B4
:10349000406848600846406820F440304860584C16
:1034A0000846406820F4803048606B4601AA5048C6
:1034B00001682046FFF77CFF50480068C0F3130006
:1034C0004E4908609DF8040080069DF8001040EA0F
:1034D00001504A4909680843484908600846006B9A
:1034E00040F08050086342480068E100884235D9C6
:1034F0004448006840F4803042490860084600684B
:1035000040F44040086000BF3E48406800F480300E
:103510000028F9D03948006840F0807037490860C9
:1035200000BF3648006800F000700028F9D000BFE6
:103530003448006840F4003032490860084640686A
:1035400000F400300028F3D000E026E04FF47A7554
:1035500000BF2800A5F10105FBD105E02748006860
:1035600040F080702549086000BF2448006800F0E2
:1035700000700028F9D02148406820F003001F495E
:1035800048600846406840F00200486000BF1B48A1
:10359000406800F00C000828F9D13FBD00B517487D
:1035A00040681949084015494860084600681749AD
:1035B0000840124908600846006820F4802008602E
:1035C0000846406820F4FE00486008460068C0F3E2
:1035D000130008604FF41F008860FFF71CFF4FF0D6
:1035E00000600B49086000BD006001400044950880
:1035F000080200200020024000366E010010024048
:10360000001BB700007000400C00FFF8FFFFF6FE43
:1036100008ED00E00648804706480047FEE7FEE761
:10362000FEE7FEE7FEE7FEE7FEE7FEE7FEE7FEE772
:103630009D350008B5010008064C074D06E0E0681E
:1036400040F0010394E8070098471034AC42F6D3E9
:10365000FCF7B4FD6C3700088C37000870B58C1887
:1036600010F8015B15F0070301D110F8013B2A1196
:1036700006D110F8012B03E010F8016B01F8016B83
:103680005B1EF9D12B0705D40023521E0DD401F87F
:10369000013BFAE710F8013BCB1A921C03E013F848
:1036A000015B01F8015B521EF9D5A142D8D300207D
:1036B00070BD02E008C8121F08C1002AFAD1704785
:1036C0007047002001E001C1121F002AFBD17047A2
:1036D0001201000200000040812F20570002010269
:1036E000030109022000010100C0320904000002A8
:1036F0000806500407058102400000070502024049
:103700000000040309042E034D0069006E006400EC
:103710004D006F00740069006F006E0053006F0071
:10372000630073006F006C007500740069006F0027
:103730006E007300260320004D004D003300320060
:1037400020004D00610073007300200053007400DE
:103750006F00720061006700650010034D004D00AE
:1037600020004D006100730073000000004C000851
:10377000000000200C0200005C360008D04C00085D
:103780000C020020BC0C0000C23600080000000043
:103790000000000000000000000000000000000029
:1037A0000000000000000000000000000000000019
:1037B0000000000000000000000000000000000009
:1037C00000000000000000000000000000000000F9
:10440000EB3C904D53444F53352E300002010100D8
:10441000011000E001F801000100010000000000AF
:1044200000000000000029741902274D533138396B
:1044300032204469736B4641543132000000000061
:10444000000000000000000000000000000000006C
:10445000000000000000000000000000000000005C
:10446000000000000000000000000000000000004C
:10447000000000000000000000000000000000003C
:10448000000000000000000000000000000000002C
:10449000000000000000000000000000000000001C
:1044A000000000000000000000000000000000000C
:1044B00000000000000000000000000000000000FC
:1044C00000000000000000000000000000000000EC
:1044D00000000000000000000000000000000000DC
:1044E00000000000000000000000000000000000CC
:1044F00000000000000000000000000000000000BC
:1045000000000000000000000000000000000000AB
:10451000000000000000000000000000000000009B
:10452000000000000000000000000000000000008B
:10453000000000000000000000000000000000007B
:10454000000000000000000000000000000000006B
:10455000000000000000000000000000000000005B
:10456000000000000000000000000000000000004B
:10457000000000000000000000000000000000003B
:10458000000000000000000000000000000000002B
:10459000000000000000000000000000000000001B
:1045A000000000000000000000000000000000000B
:1045B00000000000000000000000000000000000FB
:1045C00000000000000000000000000000000000EB
:1045D00000000000000000000000000000000000DB
:1045E00000000000000000000000000000000000CB
:1045F000000000000000000000000000000055AABC
:10460000F8FFFFFFFFFFFF0F0000000000000000A9
:10461000000000000000000000000000000000009A
:10462000000000000000000000000000000000008A
:10463000000000000000000000000000000000007A
:10464000000000000000000000000000000000006A
:10465000000000000000000000000000000000005A
:10466000000000000000000000000000000000004A
:10467000000000000000000000000000000000003A
:10468000000000000000000000000000000000002A
:10469000000000000000000000000000000000001A
:1046A000000000000000000000000000000000000A
:1046B00000000000000000000000000000000000FA
:1046C00000000000000000000000000000000000EA
:1046D00000000000000000000000000000000000DA
:1046E00000000000000000000000000000000000CA
:1046F00000000000000000000000000000000000BA
:1047000000000000000000000000000000000000A9
:104710000000000000000000000000000000000099
:104720000000000000000000000000000000000089
:104730000000000000000000000000000000000079
:104740000000000000000000000000000000000069
:104750000000000000000000000000000000000059
:104760000000000000000000000000000000000049
:104770000000000000000000000000000000000039
:104780000000000000000000000000000000000029
:104790000000000000000000000000000000000019
:1047A0000000000000000000000000000000000009
:1047B00000000000000000000000000000000000F9
:1047C00000000000000000000000000000000000E9
:1047D00000000000000000000000000000000000D9
:1047E00000000000000000000000000000000000C9
:1047F00000000000000000000000000000000000B9
:104800004D5331383932204469736B280000000061
:104810000000000000000000000000000000000098
:104820004152006500610064004D000F0073650097
:104830002E0074007800740000000000FFFFFFFFEE
:10484000524541444D4520205458542000879971C9
:1048500045374C370000324D4C370200360000001F
:104860000000000000000000000000000000000048
:104870000000000000000000000000000000000038
:104880000000000000000000000000000000000028
:104890000000000000000000000000000000000018
:1048A0000000000000000000000000000000000008
:1048B00000000000000000000000000000000000F8
:1048C00000000000000000000000000000000000E8
:1048D00000000000000000000000000000000000D8
:1048E00000000000000000000000000000000000C8
:1048F00000000000000000000000000000000000B8
:1049000000000000000000000000000000000000A7
:104910000000000000000000000000000000000097
:104920000000000000000000000000000000000087
:104930000000000000000000000000000000000077
:104940000000000000000000000000000000000067
:104950000000000000000000000000000000000057
:104960000000000000000000000000000000000047
:104970000000000000000000000000000000000037
:104980000000000000000000000000000000000027
:104990000000000000000000000000000000000017
:1049A0000000000000000000000000000000000007
:1049B00000000000000000000000000000000000F7
:1049C00000000000000000000000000000000000E7
:1049D00000000000000000000000000000000000D7
:1049E00000000000000000000000000000000000C7
:1049F00000000000000000000000000000000000B7
:104A0000C7EBBDABD0E8D2AAC9D5C2BCB5C42E6233
:104A1000696ECEC4BCFEB8B4D6C6B5BDB5B1C7B01C
:104A2000C4BFC2BCCFC2A3ACBCB4BFC9CDEAB3C97A
:104A3000C9D5C2BCA1A30000000000000000000016
:104A40000000000000000000000000000000000066
:104A50000000000000000000000000000000000056
:104A60000000000000000000000000000000000046
:104A70000000000000000000000000000000000036
:104A80000000000000000000000000000000000026
:104A90000000000000000000000000000000000016
:104AA0000000000000000000000000000000000006
:104AB00000000000000000000000000000000000F6
:104AC00000000000000000000000000000000000E6
:104AD00000000000000000000000000000000000D6
:104AE00000000000000000000000000000000000C6
:104AF00000000000000000000000000000000000B6
:104B000000000000000000000000000000000000A5
:104B10000000000000000000000000000000000095
:104B20000000000000000000000000000000000085
:104B30000000000000000000000000000000000075
:104B40000000000000000000000000000000000065
:104B50000000000000000000000000000000000055
:104B60000000000000000000000000000000000045
:104B70000000000000000000000000000000000035
:104B80000000000000000000000000000000000025
:104B90000000000000000000000000000000000015
:104BA0000000000000000000000000000000000005
:104BB00000000000000000000000000000000000F5
:104BC00000000000000000000000000000000000E5
:104BD00000000000000000000000000000000000D5
:104BE00000000000000000000000000000000000C5
:104BF00000000000000000000000000000000000B5
:104C0000713580020220C81B4D4D333220205344A1
:104C100020466C617368204469736B202020312E1C
:104C2000302022BD204E414E2529234203620662D8
:104C30007002150A42083202141A034D124D123343
:104C40001232124C12300210581311040C180821A1
:104C500021040A151920412303011A612013730549
:104C6000140879061B087B041A9D041AF5041333F3
:104C7000071B0849041A57041A6504413240293CAD
:104C80001A4320A94C9A51101A650C13D0363308D8
:104C9000121AE2082A20C712372B0804F819083222
:104CA0002E1A34083226227D33201A1A5A10721016
:104CB000199301792D010203040438080607080935
:104CC000020406F469182914110400449508000030
:04000005080001B539
:00000001FF
