:020000040800F2
:10000000000F00202D040008350400083704000804
:10001000390400083B0400083D040008000000000B
:100020000000000000000000000000003F04000885
:10003000410400080000000043040008070700080E
:100040004704000847040008470400084704000864
:100050004704000847040008470400084704000854
:100060004704000847040008470400084704000844
:100070004704000847040008470400084704000834
:100080004704000847040008470400080000000077
:1000900000000000470400080000000047040008BA
:1000A0004704000847040008470400084704000804
:1000B00047040008470400084704000847040008F4
:1000C000000000004704000800000000470400088A
:1000D000470400084B0600084704000847040008CE
:1000E0006D0800084704000847040008470400089A
:1000F0004704000847040008470400080000000007
:1001000000000000470400084704000847040008F6
:100110004704000847040008470400084704000893
:100120004704000847040008470400084704000883
:100130004704000847040008000000000000000019
:100140004704000800000000000000004704000809
:10015000000000000000000000000000470400084C
:10016000000000000000000000000000000000008F
:10017000000000000000000000000000470400082C
:100180004704000800000000470400084704000876
:10019000000000000000000000000000000000005F
:1001A000000000000000000000000000000000004F
:1001B00000000000DFF80CD002F0CEF80048004745
:1001C00051040008000F00202DE9F04305461646B3
:1001D0001F4608464FF0000C002423E0002319E0DE
:1001E00003F1010805FB08F804F10109B8FBF9F275
:1001F0008A4202D9A2EB010801E0A1EB02084246C3
:10020000904202D9104633703C7010B94FF0010C87
:1002100002E05B1C402BE3D300BFBCF1000F00D019
:1002200002E0641C042CD9D300BFBDE8F0833FB5C5
:1002300000200390012002907148006820F018000F
:100240006F4908600846006840F00100086000BF80
:100250006B48406800F003000228F9D169486A49F8
:100260000860029801287CD16848006840F01000BE
:10027000664908600846006820F007000860624888
:1002800000686349B0FBF1F4072C00D907245F48EC
:10029000006820435D4908605E4840685D494860E9
:1002A000084640684860084640684860084640681C
:1002B00020F440304860584C0846406820F48030B4
:1002C00048606B4601AA504801682046FFF77CFF52
:1002D00050480068C0F313004E4908609DF80400C0
:1002E00080069DF8001040EA01504A490968084319
:1002F000484908600846006B40F080500863424857
:100300000068E100884235D94448006840F48030F4
:10031000424908600846006840F44040086000BF59
:100320003E48406800F480300028F9D03948006821
:1003300040F080703749086000BF3648006800F020
:1003400000700028F9D000BF3448006840F4003045
:10035000324908600846406800F400300028F3D0B5
:1003600000E026E04FF47A7500BF2800A5F10105F2
:10037000FBD105E02748006840F0807025490860FF
:1003800000BF2448006800F000700028F9D0214820
:10039000406820F003001F4948600846406840F06C
:1003A0000200486000BF1B48406800F00C000828AD
:1003B000F9D13FBD00B517484068194908401549B3
:1003C0004860084600681749084012490860084616
:1003D000006820F4802008600846406820F4FE0091
:1003E000486008460068C0F3130008604FF41F001F
:1003F0008860FFF71CFF4FF000600B49086000BDEC
:1004000000600140004495081000002000200240D8
:1004100000366E0100100240001BB7000070004063
:100420000C00FFF8FFFFF6FE08ED00E006488047ED
:1004300006480047FEE7FEE7FEE7FEE7FEE7FEE7C9
:10044000FEE7FEE7FEE7FEE7B5030008B50100089A
:1004500008B500F096F901F000FF00F02FF800F069
:100460000DFB02F00DF96946432003F0B1FC0F21AA
:100470000A4803F0FDF94FF4A07003F0EBF92820CF
:1004800000F01F02012191404209920002F1E02296
:10049000C2F8001100BF00BFFEE70000705900085D
:1004A00000BF704700BF874A126802F00102002AAD
:1004B000F9D0C2B2834B083B1A60704710B586B0C2
:1004C0000121102001F035F90121084601F024F93D
:1004D00025208DF8000001208DF801008DF8020024
:1004E0008DF80300684600F040FE0121102001F065
:1004F00020F97548006801903020ADF80800002010
:10050000ADF80A00ADF80C00ADF810001820ADF8F9
:100510000E0001A96B48083801F0BBFB0122022143
:100520006848083801F005FC01216648083801F0E8
:10053000F4FB4FF40070ADF8140003208DF81600A2
:1005400018208DF8170005A94FF0904000F0E4FC4A
:1005500007220921C80600F0A0FD4FF48060ADF825
:10056000140004208DF8170005A94FF0904000F00A
:10057000D3FC07220A214FF0904000F08EFD252089
:100580000121002807DA0A07140E504A00F00F0371
:100590001B1FD45403E00A07130E4D4A135400BF27
:1005A00006B010BD1FB500214648083801F0B5FB64
:1005B00045480068009069464248083801F069FBE8
:1005C00001214048083801F0A8FB1FBD0020414927
:1005D000087041490870704770B53F4805783D483C
:1005E00000783D490978884200D170BD39480078CB
:1005F00085420FDD374A1278A91A384A354B1B78E5
:10060000D01804F071FBC4B232480078204431495C
:10061000087018E02F4A1278C2F164012F4A2D4B5E
:100620001B78D01804F060FBC4B22A48007820443C
:100630002849087008460078642190FBF1F201FB1C
:1006400012002449087000BFCFE710B502211D48F1
:10065000083801F096FBD0B102211A48083801F0A1
:1006600099FB1848083801F079FB1C491A4A12789E
:10067000885419480078401C1749087008460078CB
:10068000642190FBF1F201FB120013490870012173
:100690000C48083801F075FB20B1012109480838E1
:1006A00001F078FB10BD70B504460D4606E02078D9
:1006B0000021FFF7F7FE681EC5B2641C002DF6D1BD
:1006C00070BD0000083801401400002018ED00E063
:1006D00000E400E01C0000201D00002004020020B7
:1006E00010B5002807DA0A07140E2D4A00F00F0390
:1006F0001B1FD45403E00A07130E2A4A135410BDDB
:1007000029480068704710B527480068401C2649F2
:10071000086002F089FE10BD10B5244800684FF44F
:100720007A71B0FBF1F4601EB0F1807F01D301203B
:100730000FE0601E4FF0E02148610F214FF0FF30C5
:10074000FFF7CEFF00204FF0E0218861072008610D
:10075000002008B100BFFEE70021481EFFF7C0FFE0
:1007600010BD00B50146FFF7CBFF03460A46501CFB
:1007700000B1521C00BFFFF7C3FFC01A9042FAD36A
:1007800000BD10B518210A4800F010F900F012F869
:10079000FFF7C2FF4FF47A61062001F00CFD10BD97
:1007A00018ED00E000E400E0200000201000002030
:1007B000003C00401FB50121022000F0ADFF0121E7
:1007C000880300F0B6FF4FF40040ADF80C000420A1
:1007D0008DF80F0003208DF80E0003A9284800F0C3
:1007E0009BFB0F21012001F0C1F94FF40040009064
:1007F00000208DF804000C208DF8050001208DF8F4
:100800000600684600F0C2FA28208DF80800022091
:100810008DF80A008DF8090001208DF80B0002A860
:1008200000F0A3FC28200221002807DA0A07140E92
:10083000144A00F00F031B1FD45403E00A07130EE1
:10084000114A135400BF282000F01F0201219140DB
:100850000E4A430942F8231000BF1FBD10B50848D7
:1008600000F0F6FB012121EAD03010BD10B54FF4A5
:10087000004000F003FB002002F0EEFD10BD000080
:100880000004004818ED00E000E400E080E100E032
:1008900002467848026000BF76480830008800F0C1
:1008A00001000028F8D000BF72480830008800F02E
:1008B00002000028F8D06F48001D0068C0B27047E1
:1008C00010B56C48283000884FF6FE710840694921
:1008D000283108808914684800F0CDFB10BD10B5A0
:1008E0006448283000880121084362492831088083
:1008F0008914614800F0BDFB10BD2DE9F0410746A9
:100900000C4615464FF00008FFF7DAFF0121384684
:10091000FFF7BEFF002606E014F8010B0121FFF7E8
:10092000B7FF701CC6B2AE42F6DBFFF7D8FF4046F9
:10093000BDE8F0812DE9F04107460D4616464FF01F
:100940000008FFF7BDFF01213846FFF7A1FF8046F1
:10095000002406E00021FF20FFF79AFF2855601CC5
:10096000C4B2B442F6DBFFF7BAFF4046BDE8F081FF
:1009700010B504460821204601F073F810BD10B5EB
:1009800004464FF6F771204601F06BF810BD10B524
:1009900004461021204601F064F810BD10B504464D
:1009A0004FF6EF71204601F05CF810BD30B585B010
:1009B00005460C46284600F067FF0121C80300F0F9
:1009C000C5FE0121082000F0A7FE0D220C212A48B7
:1009D00000F063FB0D221146274800F05EFB062263
:1009E0000E21254800F059FB0E220F21224800F06D
:1009F00054FB4FF4E040ADF8000003208DF80200F6
:100A000018208DF8030069461B4800F085FA4FF462
:100A10000040ADF8000048208DF8030069461648F4
:100A200000F07AFAFFF75BFF0420ADF80400002025
:100A3000ADF806000820ADF808000020ADF80A0067
:100A40000120ADF80C000020ADF80E00ADF810400C
:100A5000ADF8120001A9284600F042FF0121284606
:100A600000F07AFF2846FFF783FF2846FFF78FFF45
:100A700005B030BD003C0040000C004808B5002225
:100A80000821154800F009FB4FF48070ADF8000014
:100A900001208DF8020010208DF8030069460E48F1
:100AA00000F03AFA08BD10B50C48007808B90120EA
:100AB00000E00020094908700846007828B14FF48A
:100AC0008071054800F0D5FA04E04FF480710248C7
:100AD00000F0D1FA10BD00000004004824000020FE
:100AE00010B50446A048204448B90121080200F08E
:100AF00061FE00214FF4807000F05CFE00E000BF5A
:100B000000BF10BD10B502460020506820F08000E4
:100B1000D1E90043234318435060906840F67C635A
:100B20009843D1E9044323438C68234318439060DE
:100B300010BD002101604160816001614161704729
:100B400021B1426842F00102426003E0426822F0B3
:100B500001024260704721B1826842F0080282605F
:100B600003E0826822F00802826070471AB183684D
:100B70000B43836002E083688B438360704721B13D
:100B8000826842F48072826003E0826822F480729C
:100B900082607047014600208A6802F480720AB1C0
:100BA000012000E00020704770B514460022426822
:100BB00022F4E05203F0070542EA85254560042946
:100BC00025D007DC79B1012912D0022915D00329DB
:100BD00037D117E005291FD0062922D0082925D0B2
:100BE000FF292ED127E0C56845F00105C5602DE03D
:100BF000C56845F00205C56028E0C56845F00405F4
:100C0000C56023E0C56845F00805C5601EE0C568FD
:100C100045F01005C56019E0C56845F02005C560C0
:100C200014E0C56845F04005C5600FE0C56845F4AF
:100C30008075C5600AE0C5684FF6FF763543C5602C
:100C400004E0C5686FF30805C56000BF00BF70BD54
:100C500021B1826842F00402826003E0826822F0DF
:100C600004028260704701464868C0F3C21010B9A0
:100C7000086880B270474868C0F3C210012803D1E9
:100C80000868C0F34F00F5E74868C0F3C2100228B7
:100C900003D10868C0F38F00ECE74868C0F3C210C6
:100CA000032803D10868C0F3CF00E3E74868C0F326
:100CB000C210042803D10868C0F30F10DAE70868EF
:100CC00080B2D7E70A460021816821F07001114304
:100CD0008160704721B1826842F00402826003E0C3
:100CE000826822F00402826070470A46002141684F
:100CF00021F0020111434160704710B50B4642EAF2
:100D00000344046110BD0A460021816821F470414A
:100D100041EA02318160704730B11449096841F0FD
:100D20000401124A116005E01049096821F004012C
:100D30000E4A116070470246002053690B400BB108
:100D4000012000E00020704742690A434261704779
:100D50000246002053690B400BB1012000E0002047
:100D6000704741617047000000DCFEBF0424014071
:100D7000002044490860091D0860091D0860091D1C
:100D8000086041483F4914310860704700213D49DF
:100D90008279002A3AD00A46126803689A430B46C1
:100DA0001A600A1D126803689A430B1D1A600279C3
:100DB00011440A6803681A430A60324A083212680A
:100DC00003689A432F4B08331A601A1D1268036890
:100DD0009A432C4B0C331A604279102A0ED11A1FF9
:100DE000126803681A43274B08331A601A1D1268E9
:100DF00003681A43234B0C331A600EE021494279F1
:100E000011440A6803681A430A6006E01D49027922
:100E100011440A6803689A430A6070470021016020
:100E200001710C2141710021817170471549103108
:100E300009680143134A10321160704701460020CF
:100E4000104A143212680A400AB1012000E0002062
:100E500070470C4914310860704701460020002299
:100E6000084B1B6803EA0102064B14331B680B4056
:100E700013B10AB1012000E000207047014914318C
:100E80000860704700040140FFFF1F0010B50446D2
:100E90009249601A8C4220D006DCB4F1904F0AD0FF
:100EA0008F482044A0BB0FE0B0F5806F1ED0B0F596
:100EB000006F2ED123E00121084600F02DFC002117
:100EC000012000F029FC25E00121022000F024FC93
:100ED0000021022000F020FC1CE00121042000F091
:100EE0001BFC0021042000F017FC13E00121082066
:100EF00000F012FC0021082000F00EFC0AE00121A5
:100F0000102000F009FC0021102000F005FC01E099
:100F1000FFE700BF00BF10BD2DE9F04102460025EC
:100F20000026002000230024002791F803C00CF0C5
:100F30000F0591F803C00CF0100CBCF1000F03D0AA
:100F400091F802C04CEA050591F800C0BCF1000F11
:100F500031D0146800202BE04FF0010C0CFA00F3A4
:100F6000B1F800C00CEA03069E4220D183004FF086
:100F70000F0C0CFA03F7BC4305FA03FC4CEA04041B
:100F800091F803C0BCF1280F06D14FF0010C0CFA08
:100F900000FCC2F814C00AE091F803C0BCF1480F8D
:100FA00005D14FF0010C0CFA00FCC2F810C0401C37
:100FB0000828D1D31460B1F800C0BCF1FF0F34DDB4
:100FC000546800202EE000F1080C4FF0010808FAE8
:100FD0000CF3B1F800C00CEA03069E4221D1830055
:100FE0004FF00F0C0CFA03F7BC4305FA03FC4CEA74
:100FF000040491F803C0BCF1280F05D100F1080CDE
:1010000008FA0CF8C2F8148091F803C0BCF1480F3C
:1010100007D100F1080C4FF0010808FA0CF8C2F8EB
:101020001080401C0828CED35460BDE8F0814FF6F4
:10103000FF710180022181700421C1707047024656
:10104000002093680B400BB1012000E000207047A6
:101050000146886880B2704702460020D3680B4082
:101060000BB1012000E0002070470146C86880B243
:10107000704701617047416170470AB1016100E04A
:1010800041617047C16070474FF480320A4382610A
:1010900081618261826982697047F0B50023002412
:1010A0004D07ED0E02FA05F3CD105DB9056A4E0746
:1010B000F70E0F26BE40B5430562056A45EA0304F4
:1010C00004620AE0456A4E07F70E0F26BE40B5439C
:1010D0004562456A45EA03044462F0BD00080048E1
:1010E00000FCFFB71D49086070471C494860704705
:1010F0001A49886070474AF6AA2018490860704764
:101100004CF6CC4015490860704701460020134A50
:10111000D2680A400AB1012000E00020704730B1D7
:101120000E49096941F001010C4A116105E00B49C2
:10113000096921F00101094A1161704730B107497D
:10114000096941F00201054A116105E00349096995
:1011500021F00201014A1161704700000030004097
:1011600034490143344A1160704770B500210023AF
:101170000F22C47804B3304C246804F4E064C4F54E
:10118000E064210AC1F10403CA40447804FA03F17F
:101190008478144021430901284C0678A15504782D
:1011A00004F01F050124AC4005786D11AD0005F178
:1011B000E025C5F8004109E0047804F01F0501248A
:1011C000AC401F4D0678761145F82640047864112E
:1011D000A40004F1E024D4F8003170BD194A0A409B
:1011E0000243154B1B1F1A60704739B1124A121D7A
:1011F00012680243104B1B1D1A6006E00E4A121DB6
:10120000126882430C4B1B1D1A607047042808D1DA
:101210004FF0E021096941F004014FF0E022116133
:1012200007E04FF0E021096921F004014FF0E022CE
:10123000116170470000FA050CED00E000E400E0E9
:1012400080E100E080FFFF1FF748006840F00100E8
:10125000F549086008464068F4490840F24948608A
:1012600008460068F2490840EF49086008460068EF
:1012700020F4802008600846406820F4FE004860A2
:10128000002088607047E849096821F48031E64A07
:1012900011601146096821F480211160B0F5803F8A
:1012A00003D0B0F5802F0ED106E0DF49096841F484
:1012B0008031DD4A116007E0DB49096841F4A02173
:1012C000D94A116000E000BF00BF704710B5014669
:1012D0000022002300204A11012A02D1D24C2368A7
:1012E00006E0022A02D1D04C636B01E0CE4CA36B26
:1012F00001F01F02012494401C400CB1012000E0C9
:10130000002010BD38B5002000900024002500BF4B
:101310003120FFF7DBFF05460098401C00901DB907
:101320000098B0F5A06FF3D13120FFF7CFFF08B1DF
:10133000012400E00024204638BD01460020BA4ABE
:10134000106820F0F80040EAC100106070470128E2
:1013500006D1B549096841F00101B34A116005E0C1
:10136000B149096821F00101AF4A1160704710B519
:1013700003460020AC4C2068AE4C20408C0644EA6A
:1013800002542043A84C206010BD70B506460C46A0
:101390000025A548456825F47C153543456024B9EA
:1013A000032207213046FFF7E2FFB4F5802F04D176
:1013B000012205213046FFF7DAFFB4F5002F04D1F2
:1013C000012207213046FFF7D2FFB4F5402F04D1A8
:1013D000012209213046FFF7CAFFB4F5801F04D16E
:1013E00001220B213046FFF7C2FFB4F5A01F04D144
:1013F00001220D213046FFF7BAFFB4F5C01F04D11A
:1014000001220F213046FFF7B2FFB4F5E01F04D1EF
:10141000012211213046FFF7AAFFB4F5001F04D1C5
:10142000012213213046FFF7A2FFB4F5101F04D1AB
:10143000012215213046FFF79AFFB4F5201F04D191
:10144000012217213046FFF792FFB4F5301F04D177
:10145000012219213046FFF78AFFB4F5401F04D15D
:1014600001221B213046FFF782FFB4F5501F04D143
:1014700001221D213046FFF77AFFB4F5601F04D129
:1014800001221F213046FFF772FFB4F5681F04D117
:10149000012208213046FFF76AFFB4F5741F04D11A
:1014A000022203213046FFF762FF70BD30B15E4972
:1014B000096841F080715C4A116005E05A49096889
:1014C00021F08071584A1160704701460020564A49
:1014D000506820F00300084350607047524840684D
:1014E00000F00C007047014600204F4A506820F081
:1014F000F000084350607047014600204A4A506897
:1015000020F4E06008435060704701460020464ADE
:10151000506820F4605040EAC1005060704731B11B
:10152000414A926842EA00223F4B9A6005E03E4AF7
:10153000926822EA00223C4B9A6070473A49496817
:1015400021F44001384A5160114649680143516015
:1015500070473549C96B0143334AD163704701462F
:101560000020314A506820F44040084350607047E2
:101570002D49496B21F001012B4A51631146496BFA
:1015800021F001015163012802D004280ED106E0A8
:101590002549496B41F00101234A516307E0224983
:1015A000496B41F00501204A516300E000BF00BFD4
:1015B000704730B11C49896B41F001011A4A9163AF
:1015C00005E01949896B21F00101174A91637047C1
:1015D0001549496B0143144A5163704730B11249B0
:1015E000496B41F40041104A516305E00E49496BD3
:1015F00021F400410C4A51637047F0B500210024EA
:10160000002300250022084E766806F00C0121B167
:10161000042905D0082937D110E0074E066036E0CE
:10162000054E066033E00000001002400000FFF8A5
:10163000FFFFF6FEFFFF8F0300127A008C4E366824
:10164000012707EB96648A4E3668C6F30256731C70
:10165000874E766806F480352DB9864E6643B6FB14
:10166000F3F606600FE0824E766806F400362EB17F
:10167000814E6643B6FBF3F6066004E07F4E664398
:10168000B6FBF3F6066002E07C4E066000BF00BFCA
:10169000774E766806F0F0010909794E725C0668AB
:1016A000D6404660724E766806F4E061090A744ED0
:1016B000725C4668D64086606D4E766806F460516E
:1016C000C90A6F4E725C4668D640C660684E76683E
:1016D00006F44041890B6B4E725CC668B6FBF2F6AD
:1016E0000661F0BD29B1624A126A0243604B1A6278
:1016F00004E05F4A126A82435D4B1A62704729B167
:101700005B4A526A02435A4B5A6204E0584A526A90
:101710008243574B5A62704729B1554A926A024335
:10172000534B9A6204E0524A926A8243504B9A6247
:10173000704729B14E4AD26A02434D4BDA6204E047
:101740004B4AD26A82434A4BDA62704729B1484A0F
:10175000126B0243464B1A6304E0454A126B824304
:10176000434B1A63704729B1414AD2680243404B48
:10177000DA6004E03E4AD26882433D4BDA6070474B
:1017800029B13B4A12690243394B1A6104E0384AD5
:1017900012698243364B1A61704729B1344A526943
:1017A0000243334B5A6104E0314A52698243304B61
:1017B0005A61704729B12E4A926902432C4B9A61B3
:1017C00004E02B4A92698243294B9A61704729B100
:1017D000274AD2690243264BDA6104E0244AD269DF
:1017E0008243234BDA617047012806D12049496BB7
:1017F00041F480311E4A516305E01D49496B21F4D3
:1018000080311B4A51637047012806D11849096885
:1018100041F40021164A116005E01549096821F4D8
:101820000021134A116070471149496821F0E061B5
:101830000F4A51601146496841EA006151607047A2
:101840000B48806B40F080700949886370470146FF
:101850000020074A92680A400AB1012000E00020F7
:1018600070470349896841EA0041014A9160704725
:1018700000100240001BB70000093D0000127A0072
:10188000250000203500002010B50446A54820445E
:1018900078B1B0F5806F16D0B0F5784F1DD1012129
:1018A0000803FFF787FF00214FF48050FFF782FF06
:1018B00014E001218803FFF78AFF00214FF48040E4
:1018C000FFF785FF0AE00121C803FFF780FF002131
:1018D0004FF40040FFF77BFF00E000BF00BF10BDEA
:1018E00010B50022028B02F470424B884C892343CE
:1018F0000C8823431A430283828B4FF6C0731A402D
:10190000CB89CC8823430C8923431A4342F0180324
:101910008383028C00228B891A4302848B88082BD4
:1019200007D0838B43F004038383838B43F0080346
:1019300083838B88838510BD00210180418008212D
:1019400081800021C180012101810021418102218A
:1019500081810021C181704721B1028B42F00102D7
:10196000028304E0028B4FF6FE731A400283704735
:1019700010B53AB1038B43F002030383038A0B4390
:10198000038207E0038A8B430382038B4FF6FD74C7
:101990002340038310BD1AB1038B0B43038302E082
:1019A000038B8B43038370471AB1038B0B43038371
:1019B00002E0038B8B43038370470A46838DD9B2C1
:1019C0000260082900DC09B9130A0360102900DC51
:1019D00009B9130C0360182900DC09B9130E036060
:1019E0007047014600204A6810438A8D082A01DCAE
:1019F0008A8D12B94A6840EA02208A8D102A01DCD9
:101A00008A8D12B94A6840EA02408A8D182A01DCA0
:101A10008A8D12B94A6840EA0260704710B51AB15F
:101A2000038D0B40038503E0038D63EA0103038507
:101A300010BD4FF6FE72914204D0028B42F00102BB
:101A4000028304E0028B4FF6FE731A400283704754
:101A5000028B4FF6FF431A400283028B0A43028334
:101A60007047082903D1028B42F008020283102933
:101A700003D1028B42F0100202834FF6F7729142BB
:101A800003D1028B0B461A4002834FF6EF7291424C
:101A900003D1028B0B461A400283704710B50246F1
:101AA0000B460024908D082807D11089184008B1F2
:101AB000012400E00024204610BD908D002804DDA4
:101AC000908D082801DC01210FE0908D102801DCA9
:101AD00002210AE0908D182801DC032105E0908D99
:101AE0001F2801DD908D00B904211089C0F3032067
:101AF000884201DB0120DFE70020DDE7024600200D
:101B000093890B400BB1012000E000207047828ACE
:101B10000A438282704781847047828B0A438283A2
:101B20007047000000C8FFBF2148006800F00300B4
:101B30001F4908600020886000211D48C1600161C4
:101B4000416170470146002000BF0843184A1060F9
:101B5000704729B1164A12680243154B1A6004E017
:101B6000134A12688243124B1A60704730B5002244
:101B70008B071C0F0F2303FA04F20D4B08338C1054
:101B800053F8243093430A4C08348D1044F8253020
:101B900023468C1053F824308C07240F00FA04F4E9
:101BA0002343034C08348D1044F8253030BD000029
:101BB0000000014010B50446BC49601A8C4251D067
:101BC0000CDCBB482044E0B1B0F5806F23D0B0F509
:101BD000006F2AD0B0F5406F58D130E0B0F5806F7B
:101BE0004AD0B0F5404F03D0B0F5444F4ED130E06D
:101BF00001211020FFF7DEFD00211020FFF7DAFDA4
:101C000045E001214804FFF7E2FD00214FF40030D8
:101C1000FFF7DDFD3BE001218804FFF7D8FD00213F
:101C20004FF48020FFF7D3FD31E00121C804FFF716
:101C3000CEFD00214FF40020FFF7C9FD27E0012170
:101C40000805FFF7C4FD00214FF48010FFF7BFFD2A
:101C50001DE001212020FFF7ADFD00212020FFF72E
:101C6000A9FD14E001218807FFF7B1FD00214FF025
:101C70008040FFF7ACFD0AE00121C807FFF7A7FD90
:101C800000214FF00040FFF7A2FD00E000BF00BFC1
:101C900010BD2DE9F04385B004460D460026B04640
:101CA000B14600272746E66940F2CF108643A88850
:101CB000E9880843298908430643E661A66926F0B6
:101CC0001F06A889698908430643A6616846FFF78D
:101CD00094FC7848874202D1DDF80C8001E0DDF801
:101CE00008802868B8FBF0F006092868B8FBF0F017
:101CF00000F00F092662C4F8249005B0BDE8F08317
:101D00004FF416510160302181800021C180018192
:101D10001821418100218181704721B1826942F0FF
:101D20000102826104E082694FF6FE731A4082610B
:101D300070471AB103690B43036102E003698B43E7
:101D4000036170471AB183690B43836102E08369C1
:101D50008B4383617047CAB202607047014648688E
:101D6000C0B270470246002093680B400BB10120BF
:101D700000E0002070478268CB439BB21A4082602B
:101D8000704702460020D3680B400BB1012000E0F1
:101D90000020704741617047C2694DF6FF731A40D9
:101DA000C261C2690A43C261704721B1C26942F48B
:101DB0008052C26104E0C2694EF6FF731A40C261EC
:101DC0007047826A02F47F428262826A0A438262B8
:101DD0007047C26A02F47F42C262C26A0A43C262A8
:101DE000704721B1C26942F40062C26104E0C26975
:101DF0004FF2FF731A40C261704721B1C26942F4C9
:101E00008072C26104E0C2694FF6FF631A40C2618A
:101E10007047B1F5007F04D1C26942F40072C2611B
:101E200004E0C2694FF6FF531A40C261704721B106
:101E3000C26942F48062C26104E0C2694FF6FF33B6
:101E40001A40C261704721B1026B42F480520263B2
:101E500004E0026B4EF6FF731A4002637047026B98
:101E60004FF20F031A400263026B42EA011202634F
:101E7000704721B1026B42F00102026304E0026B81
:101E80004FF6FE731A400263704721B1026B42F0B5
:101E90000202026304E0026B4FF6FD731A40026314
:101EA0007047C16941F00801C16170470078004086
:101EB00000BCFFBF00380140092070472DE9FC41FC
:101EC00006460F4614469846089DB5F5205F0ED18C
:101ED000012C0CD19BA000680190022001AB0622CE
:101EE00001210090304601F074F8BDE8FC81B5F5A1
:101EF000205F0DD1072C0BDC93A00068019002201D
:101F000001AB0F2207210090304601F062F8ECE7A8
:101F1000B5F5205F0AD1102C08DC02208B4B15226E
:101F200010210090304601F054F8DEE7B5F5205F4F
:101F30000BD1162C09DC0220844B203319221621E8
:101F40000090304601F045F8CFE72246394630464A
:101F500000F078FF00BFC8E72DE9F04105460E46C6
:101F600014469846069F132C02D0192C05D100E088
:101F700000BF284603F05EF905E0224631462846B8
:101F800000F060FF00BF00BFBDE8F0812DE9FC4715
:101F900005460C4616466EA000680190132C47D0EB
:101FA00008DC042C0DD0092C17D00B2C26D00F2CBC
:101FB00052D134E0152C3DD0182C44D0192C4BD1E3
:101FC00037E0644800F0B4F9C7B2624B22462946B4
:101FD0003046009700F0CEFF44E001F01BFD814643
:101FE00000F0A6F9C7B201F015FD8046434622462F
:101FF00029463046009700F0BDFF33E000F098FA24
:10200000814600F095F9C7B200F092FA8046434647
:10201000224629463046009700F0ACFF22E0072018
:102020004DA3224629460090304600F0A3FF19E058
:1020300000BF00BF012001AB224629460090304678
:1020400000F098FF0EE00120454B22462946009003
:10205000304600F08FFF05E022462946304600F06A
:10206000F1FE00BF00BFBDE8FC8710B500243D486D
:102070000078401C3B49087008460078282822DB7D
:1020800000200870052100F012F984B2082000F049
:10209000BBF8E410122034490880FF2C08DC002033
:1020A000324908704C700221304802F01DFE2CE0CD
:1020B00001202E4908704C702012887003212B4893
:1020C00002F012FE21E02748007814281DD10521D6
:1020D000082000F0ECF884B2002000F095F82448C5
:1020E00090FBF4F084B2B4F59C7F04DDA4F59C7001
:1020F0001B49087002E000201949087018201A498D
:1021000008800121164802F0EFFD10BD10B504460D
:10211000104800F00DF920700E4810BD7047704750
:1021200030B50546039C002030BD0BA0704710B5AC
:102130000446FEF74BFA10BD704702460B460021DD
:1021400000207047001800000A180000EA59000833
:10215000030000003C0000205356352E302E300086
:10216000470000204B0000203A00002048000020DB
:102170006A5F0900704710B501F05AFB10BD10B539
:1021800000F03DF8FEF78FFCFEF726FA10BD10B503
:1021900004E00120FEF7B9FF00B900E0F9E700BF55
:1021A00010BD10B504E00220FEF7AFFF00B900E05B
:1021B000F9E700BF10BD70B504460D460120FFF7DA
:1021C000F8F900BF6120FFF781F80028FAD0FFF787
:1021D000DEFF45F25550FEF785FFE0B2FEF785FFC2
:1021E000FFF7DFFF45F25550FEF77CFFC5F30B000C
:1021F000FEF77EFFFEF77FFFFEF782FF70BD10B592
:10220000FEF779FF10BD000010B586B0044601212D
:102210000802FFF78EFA70200190002002900590CE
:102220000490009069462F48FEF76CFC00231A4684
:102230000C212C48FEF7B8FC022300222146294835
:10224000FEF7B2FC082C02D10120FEF765FD01214A
:102250002448FEF775FC06B010BD08B50120ADF8A6
:10226000000003208DF8020000208DF8030069466D
:102270004FF09040FEF750FE0020FFF7C5FF08BD6D
:1022800070B5054601211748FEF779FC00BF012112
:102290001448FEF750FD0028F9D001211148FEF73F
:1022A00053FD10480068C0F30B04204670BD2DE9B3
:1022B000F04180460C46002500260BE04046FFF723
:1022C000DFFF0544002701E0781CC7B2642FFBDB69
:1022D000701CC6B2A642F1DBB5FBF4F080B2BDE8DB
:1022E000F08100000024014040EA01039B0703D075
:1022F00009E008C9121F08C0042AFAD203E011F845
:10230000013B00F8013B521EF9D27047D2B201E006
:1023100000F8012B491EFBD270470022F6E710B5EA
:1023200013460A4604461946FFF7F0FF204610BD43
:10233000421C10F8011B0029FBD1801A704730B5F0
:1023400004460020034600E05B1C934203D2E05C9D
:10235000CD5C401BF8D030BD064C074D06E0E06870
:1023600040F0010394E8070098471034AC42F6D3DC
:10237000FDF724FFBC5B0008DC5B000870B58C181F
:1023800010F8015B15F0070301D110F8013B2A1189
:1023900006D110F8012B03E010F8016B01F8016B76
:1023A0005B1EF9D12B0705D40023521E0DD401F872
:1023B000013BFAE710F8013BCB1A921C03E013F83B
:1023C000015B01F8015B521EF9D5A142D8D3002070
:1023D00070BD000010B5FEF793F9074A9169884275
:1023E00006D2081A918A884202D90448007808B1B6
:1023F000002010BD012010BD58000020B7000020B3
:1024000010B5094C607900280BD0FEF779F9A16A64
:10241000884207D3401AB0F5806F03D20020607164
:10242000012010BD002010BD0401002070B5104C2B
:102430000026216A4A783AB14989A289914203D19A
:1024400000F066FC206A4670E069417900290ED0F0
:10245000C188A28991420AD1A57901686163007996
:1024600084F8380002F066FCE0694671A57170BD21
:10247000BC01002010B50021C1F10F02435C845C57
:102480004454491C83540829F6DB10BD03490A6BE8
:10249000496B5043B0FBF1F070470000040100208D
:1024A0000849084AC96A526B002904DB4143B1FB61
:1024B000F2F10844704749424143B1FBF2F1401A3E
:1024C000704700000401002013B5114C9DF8000076
:1024D00000F0130020709DF80120627012B1A01C62
:1024E000FFF702FF0B48007838B120780DF10101A9
:1024F00000F00302064803F095F99DF80100044935
:10250000801CC2B2A1F1080001F0F0FA1CBD00006D
:10251000E000002080010020014880787047000022
:10252000040100200148C079704700000401002028
:1025300008483021007801EB1012074900F00F0025
:1025400009288A7001D8303000E03730C87002485E
:1025500070470000B60000204D00002010B5074C69
:10256000207A40B1FEF7CCF8E169884203D300201D
:102570002072012010BD002010BD00005800002076
:10258000194810B519490268194C8A4203D1194AF1
:102590001278D2070ED00160A08A00EB80004000C4
:1025A00000F07CF81248183001F01FFD10482C3064
:1025B00001F0F0FC206B01F0ABFDE08A01F080FD42
:1025C000607901F00BFD512001F044FA78210020E0
:1025D00001F065FA7A21002001F061FABDE81040AF
:1025E000562001F037BA000044010020A05B00082B
:1025F000BC010020580000203EB50246022464F3CE
:1026000007000A2161F30F2006218DF80010002138
:102610008DF8011005238DF8023001238DF8043068
:102620008DF805308DF806408DF803108DF80710F1
:102630008DF80820110A8DF809106946FFF744FF4C
:102640003EBD00000149487070470000C4000020F2
:10265000024902684A61808808837047800100202F
:1026600010B50C46282906D20A4601460248FFF753
:102670003BFE0248447110BDB10400205801002007
:1026800001490120487170475800002002498A69B9
:1026900010448861704700005800002070B5044D58
:1026A000044601202872FEF72BF82044E86170BD33
:1026B0005800002010B5FEF723F803491E30886249
:1026C0000120487110BD0000040100200249C00132
:1026D00000F5A060486070475001002002E008C883
:1026E000121F08C1002AFAD170477047002001E08C
:1026F00001C1121F002AFBD17047000001F00F0139
:10270000C00704D0032909D1022001F08ABC044883
:10271000007908B1FFF7CEBF01F00CBD7047000093
:10272000040100202DE9F0411D4C064600202071D7
:102730000878174600F00F000D46032802D0052840
:102740001AD111E006F50160E06101F0AAFC2069F0
:1027500001F033FC6178E06B01F03BFC6078C00174
:1027600000F50060A0610FE037B106220D4905F1C8
:102770000800FFF7E4FD10B101F0DCFC04E03A468C
:102780002946304600F002FE532001F063F9064965
:10279000042001F07DF9BDE8F041562001F05AB95E
:1027A00004010020B0000020BF01002070B5394CAA
:1027B0000646E07910B3A078401CA070A07908B15B
:1027C0002820A0702079002540B1606A091A206A8B
:1027D000301A00F06DFDE5702571A5814FF48C7005
:1027E00001F06EFCA078272817D801F0F7FB002035
:1027F000FFF74CFFBDE8704001F0ADBC512001F087
:1028000029F97821202001F04AF9562001F022F917
:10281000BDE870406420FFF739BF2520A0706069D3
:10282000FFF73EFE064460698009FFF72FFFA0898D
:10283000401CA0816089301A01F06AFCA07801F088
:10284000CDFB512001F006F97821002001F027F995
:102850007A21002001F023F9562001F0FBF80E4800
:102860006269007800EB4001890101F52071914215
:102870000FD2217A491CC9B22172172909D32572B6
:1028800018B1BDE8704001F0A3B9BDE8704001F097
:1028900041B970BD04010020B8000020094910B5FD
:1028A0002520887001F09AFB4FF48C7001F008FC31
:1028B000002001F0AAFB01F04EFCBDE81040002012
:1028C00002F010BA040100200C4810B5007800078F
:1028D00003D0BDE8104001F02DBC782001F0F0FBE2
:1028E000012001F09EFB05480E38C1698069BDE8F2
:1028F0001040084400F5116001F0D3BB1201002024
:10290000F8B506460D46022001F08BFB1A4C05F582
:102910008C50E061A17825290DD1628902EB42013A
:10292000C1EBC21100EB4100E061C2EB021000F507
:102930008C7001F0C5FBE06901F0B3FBE089ADF8F4
:102940000000009801F039FB2178A06B01F041FBF9
:102950002078C00100F50060A061A07825280AD188
:10296000C4E90865A089112802D2E078002802D0C5
:102970000120E0702071F8BD040100202DE9F04F26
:10298000DFF888B387B00D460446002705EB071033
:10299000227801784A4059461BF802202270237998
:1029A000067973401BF803302371237A067A73404B
:1029B0001BF803302372237B067B73401BF8033024
:1029C00023736678437890F805C05E40637983EAA4
:1029D0000C03CB5C63709A46637A90F809C083EA73
:1029E0000C03CB5C6371637B90F80DC083EA0C032E
:1029F000CB5C63728B5D6373A678837894F806C0B2
:102A00005E40837990F80A808CEA030CA37A83EA0B
:102A10000803CB5CA3709946A37B90F80E8083EAF1
:102A20000803CB5CA3718B5DA37211F80C30A37308
:102A3000E37BC67B90F80BC07340E67A86EA0C060F
:102A40008E5DE673E67990F807C086EA0C0690463C
:102A50008E5DE672E678C0784640885DE0711BF8CE
:102A6000031082EA0A0089EA0103E17080EA0306A2
:102A700000F0C6FF21787040414021706078A17855
:102A8000484000F0BDFF6178704041406170A0781F
:102A9000E178484000F0B4FFA17870404140A17057
:102AA000E07880EA080000F0ABFFE1787040414038
:102AB000E17020796279A379E679804650407340CD
:102AC00080EA030600F09CFF2179704041402171AB
:102AD0006079A179484000F093FF617970404140EE
:102AE0006171A079E179484000F08AFFA1797040D6
:102AF0004140A171E27982EA080000F081FFE179AA
:102B000070404140E171207A627AA37AE67A804689
:102B10005040734080EA030600F072FF217A704053
:102B200041402172607AA17A484000F069FF617AE1
:102B3000704041406172A07AE17A484000F060FF45
:102B4000A17A70404140A172E27A82EA080000F066
:102B500057FFE17A70404140E172207B627BA37BAA
:102B6000E67B80465040734080EA030600F048FF51
:102B7000217B704041402173607BA17B484000F085
:102B80003FFF617B704041406173A07BE17B484027
:102B900000F036FFA17B70404140A173E27B82EAE6
:102BA000080000F02DFFE17B704041407F1CFFB228
:102BB000E173092FFFF4EAAE05EB071022780178E4
:102BC0004A4059461BF80230237022790679724038
:102BD0001BF8022022710492227A067A72401BF8B6
:102BE000022022720392227B067B72408A5C22734F
:102BF0000292667842784779564062797A408A5CD8
:102C000062709246627A477A7A408A5C6271934631
:102C1000627B477B7A408A5C627296468A5D627309
:102C20009146A7788278A6795740827990F80AC0B1
:102C30005640A27A82EA0C028A5CA2700192A27BC0
:102C400090F80EC082EA0C028A5CA271009211F820
:102C5000078084F80A8011F806C084F80EC0E27B71
:102C6000C67B72400592E27AC67A72408F5CE77347
:102C7000E279C67972408E5CE672E278C0784240B2
:102C8000885CE071059A895CE17015F8A02F5340CB
:102C900023706B788AEA03026270AB78019A5A401B
:102CA000A270EA785140E1702979049A4A40227171
:102CB00069798BEA01026271A979009A4A40A2718E
:102CC000E9794840E071287A039A42402272687A92
:102CD0008EEA00026272A87A88EA000884F80A8004
:102CE000E87A4640E672287B029A42402273687B6B
:102CF00089EA00026273A87B8CEA000C84F80EC09B
:102D0000E87B4740E77307B0BDE8F08F745A0008CE
:102D100070B50F4C0546216A0878E0714988E18159
:102D200001EB81000001FFF7BBFB28442063206A10
:102D300081882182C18861820089A082E07940F285
:102D400071214843490001EB4000E08270BD000062
:102D5000BC01002010B50446801CFFF779FC2078E8
:102D6000C109C0F3801002F0EDFA14F8020B194902
:102D7000C0F38010087154F8040BC1F8390034F81E
:102D8000080BA1F83D002068C862A0880883A079DC
:102D90008876E079C871207A627A00EB0220C881D7
:102DA000A07AE27A00EB02200882207B627B00EBB3
:102DB00002204882A07BE27B00EB0220888220690F
:102DC0004863207D81F83800607D00F01F000872A4
:102DD00010BD0000BC010020FEB50CA400F00300F3
:102DE000D0CC8DE8D0008DF8051060F307058DF884
:102DF0000620110A092428468DF8071064F30F20D5
:102E00008DF80830694600F020F8FEBD050004008A
:102E100001000000000000001CB508A100F0030044
:102E2000D1E90031CDE9003160F3070207211046F6
:102E300061F30F20694600F008F81CBD0300040090
:102E4000031700000A23FFF7C7BFFFF73DBBF0B52C
:102E500087B0064666F30704092060F30F240520B7
:102E60008DF804000D4600209C461746DDE90C1243
:102E70008DF8050004238DF806306B1C8DF80830A2
:102E800001238DF809308DF80A008DF807008DF8C0
:102E90000B308DF80C00B1F5205F15D104A800901F
:102EA00005AB61463846FFF73BF968B1BDF8140041
:102EB0008DF80900BDF810008DF80B0001A920461F
:102EC000FFF7C3FF07B0F0BD3A4629463046FFF78B
:102ED000B9FFF7E72DE9F047814600F0030060F302
:102EE00007060A2060F30F2686B000208A468DF878
:102EF000010006218DF800108DF8030004218DF8E3
:102F0000021005218DF8041001218DF805101F46CF
:102F100090468DF807000446154D1FE004EB840031
:102F200005EB40014988414516D3B94214D804EB5A
:102F3000840105EB410189788DF8061035F8100001
:102F40008DF80800000A8DF8090069463046FFF741
:102F50007CFF06B0BDE8F087641CE4B2FEF7ACFF6E
:102F6000A042DBD8424651464846FFF76BFFF0E7E8
:102F700080590008F0B587B00D4607461E461C2153
:102F800068460C9CFFF7C9F907F00301284661F376
:102F90000700611D61F30F20611C8DF80010090A04
:102FA0008DF8011004218DF8021000216D1C8DF8A0
:102FB00003108DF804506A4604E0735C5518491CF0
:102FC0006B71C9B2A142F8D31146FFF73EFF07B0BB
:102FD000F0BDF0B587B000278DF800708DF8017056
:102FE0004FF0040C0C9C8DF802C04FF0110C8DF8C2
:102FF00004C004F1040C8DF805C08DF806108DF89E
:10300000082006466D468DF803708DF807708DF820
:1030100009700A213A4605E09F5C6F54491C521C16
:10302000C9B2D2B2A242F7D30A1F8DF8002000F035
:10303000030262F3070061F30F202946FFF705FF43
:1030400007B0F0BD2DE9FF4F89B01F460998DDF8A4
:103050005880154600F003064FF0040A4FF0090BA4
:10306000B8F5285F06D0A8F52050033801D1072D08
:103070002CD07FE007A8FFF749F89DF81C200146F7
:103080000020921C66F30705D2B260F30F25122AC6
:1030900000D91222941C8DF804B08DF80040230A48
:1030A0008DF805208DF801308DF802A08DF806A06E
:1030B0008DF803008DF8070002A8921EFFF714F99F
:1030C0002846241D64F30F206946ABE0754800785C
:1030D000E8B3072017218DF804B08DF800108DF8A3
:1030E0000500002108208DF806008DF801108DF8EC
:1030F00002A08DF803108DF8071002208DF808004B
:1031000009218DF8091000218DF80A1029218DF868
:103110000B102A218DF80C100A220B248DF80D209B
:103120008DF81040002400238DF811408DF80E30EA
:1031300026240E220F238DF812408DF8142066F3FA
:1031400007058DF80F008DF81310002200E011E044
:103150008DF815208DF816008DF8182028208DF890
:1031600019008DF81A101B208DF8173060F30F2509
:10317000694656E0FF2F00D9FF270024DFF8289189
:1031800084E004EB840039F8102042457CD109EB3F
:1031900040014888A84277D3B84275D8A8F5205294
:1031A000023A44D08DF800B000238DF801308DF83C
:1031B00002A08DF803308DF804B007228DF80520A9
:1031C00004EB840309EB4302000A92788DF8062091
:1031D0008DF8070000206A460B181418401C1B7954
:1031E000C0B223720528F7D30D20497A66F307058C
:1031F00060F30F25FF2913D02C4B002003EB0111A6
:1032000014180B5C401CC0B2E3721028F8D31B20CA
:1032100060F30F2517208DF8000015208DF80500AC
:1032200011462846FFF711FE0DB0BDE8F08F0A22C7
:103230008DF8002000228DF801208DF802A08DF875
:1032400003208DF804B008228DF8052004EB8403D8
:1032500009EB4302000A92788DF806208DF80700EA
:1032600000206A460B181418401C1B79C0B2237248
:103270000528F7D3487A8DF80D0066F307050E2070
:1032800060F30F25CCE7FFE7641CE4B2FEF714FE01
:10329000A0423FF676AFDDE909012A46FFF7D2FDED
:1032A000C2E700004C00002080590008DA590008ED
:1032B000A0F5167241F6A8539A420ED2074BA1F51B
:1032C0007A729A4209D200EB4002C2EBC012C1EB03
:1032D0004203034AD362C2E90C0170471966180021
:1032E0000401002000F026BF3FB500EB8000C500C0
:1032F000DDE9081406484561BDF80450C5818263C4
:103300000370BDF81C200282C16344703FBD000001
:10331000040100200349024808604068004700009B
:10332000305A0008440100200749087840B10228BB
:1033300006D002D9A0F1010008704FF001007047DB
:103340004FF0000070470000500100201FB50949F0
:10335000DDE90934087040F271204243CA80BDF8AB
:103360000C000881BDF8200048814B614C700020A2
:1033700008711FBD580100200349024808604068D9
:10338000004700004C5A00084401002070B5204B53
:1033900008461E4919601146FFF7DCFC1D4C40F63B
:1033A0007B41208A801F884208D2A08A091F0A38E0
:1033B000884203D2207A401F0C2803D3BDE8704016
:1033C00000F0B8BE012000F029F8134D287820F055
:1033D0001C0040F001002870A08A218AB0EB410F48
:1033E00003D94FF6FF7000EA410000EB8000400077
:1033F000FFF754F9287820F06000287000F0D0FE24
:1034000000F098FE0020607070BD0000A05B000816
:1034100044010020BC010020580000200149087030
:103420007047000050010020094810B5407900287D
:103430000DD0084800680078002808D1FEF7E0FFAA
:1034400008B1FFF74FFFBDE8104000F0D5BB10BD3D
:1034500058000020440100202DE9FC47EF4EDFF822
:10346000C09331467279C979DFF8B883EE4DEF4CDD
:10347000771C4FF0000A032A04D0012A6FD0022AD9
:1034800003D004E0012917D0BFE003227271B0819C
:10349000012901D041B109E03878800706D4F18ACA
:1034A000002002F0EFF901E002F0D6F9F17970792D
:1034B00001436ED0002852D186F804A0FDF7CEF962
:1034C000002867D0D548801D00F05AFDB07900F083
:1034D0001DFBB079C1070CD0694601A800F0DEFBE6
:1034E0000099C9F800100198C8F800002A6892688D
:1034F00057E0810708D5694601A800F0CFFB28688E
:103500008269DDE900104CE0C10603D528684069F6
:10351000804768E001062AD52868C449007890B140
:10352000012000F0EDFB2078617800EB012081B2F2
:103530002868C26801209047B079410610D56846D6
:1035400000F0CBFB21E0002000F0DAFB207861786E
:1035500000EB012081B22868C268012021E069E007
:10356000800640D5694601A800F098FB2EE0410690
:1035700011D5684600F0B1FB2868007828B9A74A41
:10358000AA490932002000F0D7FB28686278036955
:1035900025E03AE053E0410705D528680021C268DC
:1035A000084690471FE0010703D50020FFF736FFCC
:1035B00017E0800615D5694601A800F06FFB286862
:1035C000017851B19949012000F09AFB286862788E
:1035D000002103690098984705E003690022934998
:1035E000F8E700F0A7FD2868007820B13878800758
:1035F00019D5F079B8B9B079800714D5F07938B910
:1036000002F02AF97079032802D086F806A028E093
:10361000FEF7A4FF18B1F07901280DD003E030794E
:1036200008B900F098FD707900283FF447AFB079F1
:103630008028FAD0BDE8FC8786F804A0F1E770790D
:103640000028F2D0B07900287FF438AFF2E7B079E3
:10365000022806D1FEF7BEFE18B1707908B9FEF750
:1036600089FD2868007858B9707920B9FEF7C8FE3E
:1036700008B1FFF737FEFEF755FF08B9FEF77FFDEB
:10368000FDF7ECF800287DD06448801D00F078FC40
:10369000B07900F03BFAB079C10710D0694601A8B3
:1036A00000F0FCFA0099C9F800100198C8F8000071
:1036B0002A6892689047FDF723F8B0618CE0810793
:1036C00019D5694601A800F0E9FA00F033FD286831
:1036D0008269DDE900109047FEF71EFF252803D11F
:1036E0004E480078800703D528680078012873D1F8
:1036F000FEF745FD70E0C10603D5286840698047A4
:103700006AE001062AD528684849007898B1012066
:1037100000F0F6FA2078617800EB012081B2286889
:10372000C26801209047B079410610D5694601A8CA
:1037300000F0B4FA25E0002000F0E2FA2078617889
:1037400000EB012081B22868C268012027E08006D2
:1037500042D5694601A800F0A1FA2FE0410616D52E
:10376000684600F0BAFA2868007850B9207800F06E
:103770000F00052805D1294A2C490932002000F004
:10378000DBFA00E043E02868627803691FE0410744
:1037900001D4010705D528680021C2680846904772
:1037A0001AE0810615D5694601A800F077FA286865
:1037B000017851B11D49012000F0A2FA2868627811
:1037C000002103690098984706E003690022174921
:1037D000F8E798B100F0AEFCB07980070ED5F0792B
:1037E00001280BD13878800708D4F18A002002F034
:1037F00049F8707903287FF45FAE03E07079002800
:103800003FF425AFB07980287FF420AF1FE77079AF
:103810000028FBD0B0790028F8D10BE75800002031
:10382000480100204C01002044010020A602002095
:1038300010B5074CA079022805D1FEF7CBFD10B1D9
:103840006079032801D0002010BD012010BD0000C8
:103850005800002010B50446FCF752FF034A02212D
:1038600020465171BDE81040FFF7F6BD580000201A
:1038700010B50C461F2900D91F24014622460648D0
:10388000FEF732FD054884700A30A41D4470BDE87F
:10389000104002F029B80000680200205800002003
:1038A0000449087000F0F000091D001D087002F0C6
:1038B0001BB800006200002070B5134A0D46014697
:1038C000107848B1401E10700026567050680928C4
:1038D00006D0401C506005E001205070002070BDF3
:1038E0003046566000EB4002084B00EB401003EB03
:1038F0008204A3F5A67210442A462060FEF7F4FC69
:1039000025712046A66070BDBC0000201C0400206C
:1039100010B500F0EFFBBDE810400020FEF7D6BE6A
:103920002DE9F04F00228B5C8354521CD2B2102A36
:10393000F9D3DFF8C4E0012200EB021111F8036CA7
:1039400011F8044CB3461EF8065011F8106D75407E
:103950002A4EB65C521C75400D748F7B91F801C0E5
:10396000D2B21EF8076086EA0C064E7491F80FC0BA
:1039700091F80280E2461EF80CC08CEA080C81F82F
:1039800012C01EF80480CB7888EA030881F81380FF
:103990000B796B400B7591F8059089EA060981F85F
:1039A00015908D7985EA0C058D75CE7986EA080625
:1039B000CE7591F808C08CEA030C81F818C091F814
:1039C000098084EA0C0488EA090881F819808B7A56
:1039D0006B408B76CD7A5F407540CD760C778BEA65
:1039E00008064E778F778AEA050C81F81FC00B2AEC
:1039F000A2D3BDE8F08F0000745A0008745B000881
:103A0000C1094FEA40604FEA106001D080F01B000E
:103A10007047000000A070474D475F424C455F4C27
:103A200049425F56352E33000148807970470000C7
:103A3000BC0100200148007870470000BC00002055
:103A4000034800780A2801D0002070470120704701
:103A5000BC00002001B5012269465020FCF74DFF53
:103A600008BD000070B50C460546FEF766FB002851
:103A700009D121460448FFF753FF2846BDE87040AE
:103A80000149FEF77BBF70BD49050020FCF752BF1E
:103A90000122FCF74FBF40F02000FCF72EBF13B50A
:103AA00040F02000012201A9FCF727FF1CBD01689E
:103AB00009B9406808B10020704701207047000034
:103AC00000210160416002490A200870704700002F
:103AD000BC0000200268136812790A7001688968C6
:103AE000016009B9002141601846704710B50B46C6
:103AF000044611461846FFF7DFFE002805D061682E
:103B000009B1886000E02060606010BD01460E20B1
:103B1000FFF7C5BF1CB55320FFF79CFF03211F20F3
:103B2000FFF7BDFF01A91F20FFF7B2FF9DF80400BA
:103B30000028F7D103211F20FFF7B1FF01A91F20A3
:103B4000FFF7A6FF9DF804000028F7D101211520FA
:103B5000FFF7A5FFA0211220FFF7A1FF04210A20F3
:103B6000FFF79DFF00210A20FFF799FF882112200F
:103B7000FFF795FF01248DF8004021208DF801000A
:103B8000022269461320FFF786FF8DF800402020AF
:103B90008DF80100022269461320FFF77CFF002107
:103BA0001520FFF77CFF5620FFF754FF1CBD08B51A
:103BB00000208DF800005120FFF74CFF5320FFF745
:103BC00049FF69461F20FFF763FF9DF8000008BD0D
:103BD00010B55120FFF73EFF5320FFF73BFF0321B5
:103BE0001F20FFF75CFF5620FFF734FF014901203B
:103BF000487010BDB600002038B5274CA0780128C9
:103C00003CD16078002839D0012838D0022835D13D
:103C1000FFF7CDFF002831D101211520FFF73FFF2D
:103C2000A0211220FFF73BFF04210A20FFF737FFF6
:103C300000210A20FFF733FF88211220FFF72FFF12
:103C400001258DF8005021208DF8010002226946DF
:103C50001320FFF720FF8DF8005020208DF8010081
:103C6000022269461320FFF716FF00211520FFF7F7
:103C700016FF5620FFF7EEFE0020607038BDFFF7FC
:103C800096FF0028FAD103211F20FFF708FF5620D6
:103C9000FFF7E0FE0220F0E7B60000207CB50D46FD
:103CA0000446062269461020FFF7F0FE9DF8050045
:103CB0009DF8043002049DF8031002EB0320084431
:103CC00020609DF802009DF80110000400EB012027
:103CD0009DF80010084428607CBD38B504460322D6
:103CE00069461020FFF7D2FE9DF802009DF80120E2
:103CF00001049DF8000001EB02210844206038BD5A
:103D00007CB50C460B4D4FF00202694678B1062097
:103D1000FFF7BCFE9DF8000020709DF80100607068
:103D20009DF8000028709DF8010068707CBD04209B
:103D3000EEE70000B900002070B513460C4650B104
:103D40006278901C1870002A3FD0A11C6120BDE849
:103D50007040FFF79BBE1D4804F108054178891C9F
:103D6000117001782170417861700178407801F01C
:103D70000F01072929D2DFE801F0040704122818EF
:103D800004000622A11C08E00C281ED10622A11C5A
:103D90000A20FFF77BFE062229460B20D7E70C28D6
:103DA00013D1062229460A20D1E722280DD1062266
:103DB000A11C0B20FFF76AFE062229460A20FFF706
:103DC00065FE162204F10E01C0E770BDB9000020A7
:103DD0002DE9FC41002605468DF80460664C512013
:103DE0000C60FFF737FE01A91F20FFF751FE9DF879
:103DF00004108029F7D161491E20FFF749FE782180
:103E00000020FFF74CFE06210846FFF748FE7A2106
:103E10000020FFF744FE5320FFF71CFE88211720E7
:103E2000FFF73DFE88211820FFF739FE8821192071
:103E3000FFF735FE00211520FFF731FE022101209A
:103E4000FFF72DFE1E211D20FFF729FE284600F05A
:103E500003F908200DF10101FFF71AFE9DF801009A
:103E6000464F4FF0120838B98DF8018038781B287A
:103E700002D215208DF80100C0208DF800002D2001
:103E80008DF80200032269460420FFF704FE802516
:103E90008DF800508DF80160022269460C20FFF772
:103EA000FAFD1C208DF800008DF801503878192893
:103EB00002D1CC208DF80000022269461420FFF7C1
:103EC000EAFD10208DF8000002278DF801703A46B7
:103ED00069460A20FFF7DFFD8DF800708DF801803C
:103EE000022269460D20FFF7D6FD01208DF8000063
:103EF00007208DF80100022269460E20FFF7CBFD56
:103F000038208DF800000F208DF801008DF8026038
:103F1000032269460220FFF7BEFD71210920FFF749
:103F2000BEFD8DF8005070208DF8010021208DF825
:103F3000020040208DF80300042269460B20FFF7A1
:103F4000AAFD5620FFF786FDFF210E20FFF7A7FDF3
:103F5000062209490820FFF799FD60796D2806D1EE
:103F6000ED206071062204490820FFF794FD00F05F
:103F7000E1F8BDE8FC810000B0000020B6000020A0
:103F800038B5044669460E20FFF782FD9DF8001003
:103F9000217038BD1CB501788DF8001041788DF87E
:103FA000011081788DF80210C0788DF8030004228A
:103FB00069460C20FFF76FFD1CBD1CB502228DF871
:103FC0000000000A8DF8010069460320FFF763FD39
:103FD0001CBD0A460146A020FFF75DBD282803D27C
:103FE00001460120FFF75BBD70471CB501788DF8D5
:103FF000001041788DF8011080788DF802000322BE
:1040000069460D20FFF747FD1CBD1CB5FF218DF84B
:1040100000108DF80100022269460E20FFF73BFDDB
:104020001CBD04280DD001280DD002280DD0032876
:104030000DD005280DD006280DD104210220FFF750
:104040002EBD0221FAE70921F8E70C21F6E701214C
:10405000F4E70321F2E7704708B502218DF800105C
:104060008DF801000A4669460F20FFF714FD08BDD0
:104070001CB501788DF8001041788DF80110817819
:104080008DF80210C1788DF8031001798DF80410B5
:1040900040798DF80500062269460920FFF7FBFCF0
:1040A0001CBD1CB5010A8DF800008DF80110000C34
:1040B0008DF80200032269460720FFF7ECFC1CBDC7
:1040C0001CB5010A8DF800008DF8011000218DF853
:1040D0000210B0F5803F02D301208DF802000322C8
:1040E00069461120FFF7D7FC1CBD0A460146A020F7
:1040F000FFF7D1BC1CB500F01F018DF80010000ABD
:104100008DF80100022269460520FFF7C4FC1CBDA2
:104110001CB500218DF800108DF80100010A8DF802
:104120000210000C8DF80300042269460F20FFF7EF
:10413000B2FC1CBD1CB502208DF80000FF208DF8DC
:1041400001008DF802008DF80300042269460F205B
:10415000FFF7A1FC1CBD01210F20FFF7A0BC000050
:1041600038B5054600230C4610460093FFF79FFC28
:1041700010B12B70237038BD69461046FFF7AAFCBA
:1041800001469DF800202846FEF7AEF89DF8000095
:10419000207002480178491C017038BDBC00002025
:1041A000024800210170417070470000800100202A
:1041B000044803498160002141701430FFF780BC3E
:1041C0002C5A0008C40000207047000000B587B0DA
:1041D000182209A16846FEF787F80D4803210170EF
:1041E00018214170801F6946C088ADF818000698F4
:1041F000FEF76AF907B000BD101000280001002C7E
:10420000011820000300FFFFFFFFFFFFFFFFFFFF7C
:10421000860100202DE9F0418CB04FF00008374EA8
:104220000446CDF80080CDF80480CDF8088001F078
:104230000305CDF80C8035700D20707004208DF8CA
:1042400000002F48B71F4168CDF801108168CDF8F4
:1042500005100068CDF80900F888ADF82800694617
:104260000A98FEF731F9264A002004A9121D2318E6
:1042700001EB000C5B7B0B54135C401C8CF808308A
:104280000828F4DB0846FEF7F5F8E07A08B9207B49
:1042900068B11C4A04F10B01E01C01F075FA1748E3
:1042A000801C80F80080E17A4170217B8170154983
:1042B00004A8FFF7D7FB124A002008A9231801EB36
:1042C000000C5B7D0B54135C401C8CF804300428FC
:1042D000F4DB04A801F03CF835700124747005206B
:1042E0008DF80000F888ADF8280069460A98FEF7B6
:1042F000EBF83C700CB0BDE8F081000086010020B6
:10430000685A0008090500201FB509A007C88DE8F4
:1043100007000A480321017009214170801F694686
:10432000C088ADF80C000398FEF7CEF81FBD000062
:1043300009010000000000000000000086010020CC
:104340000020044A0146535C491C1843C9B2102995
:10435000F9D37047F90500207FB5002501F003026D
:1043600029490095019502950A7004460B22072001
:104370004A708DF800008DF8015020798DF8020008
:1043800060798DF80300022001F11B068DF804000E
:104390003070FFF7D5FF08B1002000E003208DF852
:1043A000050070708DF80650B57005208DF8070077
:1043B000F07010208DF808003071207B124900F059
:1043C00004008DF809007071207B891F00F0010046
:1043D00048708DF80A00B07101F11A00A2790270DC
:1043E000E2794270227A8270627AC270A27A027195
:1043F000E27A4271227B8271C888ADF80C0069466E
:104400000398FEF761F87FBD8601002070B58AB081
:104410000E460446182103A8FDF77FFF1125102240
:10442000E11D2648FDF760FF254806F00301002244
:104430000170152141708DF80C508DF80D202079F8
:104440008DF80E0060798DF80F0003201B4D8DF85C
:104450001000104603AC203D21184A712A54401C1C
:104460001028F9D301208DF8110014492870203943
:10447000601DFFF7F7FA0020211849792954401CE4
:104480001028F9D30E490F4A0E3101F10D008DE8C5
:104490000700A0F12105C31FEA78A978601D01F08B
:1044A0009FF8601DFDF7E6FFE888ADF8000003A95E
:1044B0000098FEF709F80AB070BD00003905002029
:1044C00086010020B00000203EB501F00305002366
:1044D0000F49009301930D70062502244D708DF84D
:1044E00000408DF8013001798DF8021040798DF887
:1044F000030005208DF8040005488DF80520801F75
:104500006946C088ADF808000298FDF7DDFF3EBDA2
:104510008601002070B58AB00E460446182103A813
:10452000FDF7FBFE2E4906F0030211200A7015224A
:104530004A708DF80C0000208DF80D0020798DF860
:104540000E0060798DF80F0004208DF81000E01D3A
:10455000FDF790FF1022E11D2248FDF7C5FE20491E
:10456000214A0E3101F10D008DE80700A0F121056F
:10457000C31FEA78A978E01D01F032F8E01DFDF7CD
:1045800079FF184800221030A118835CC97999423C
:1045900006D0042231462046FFF796FF0AB070BDD0
:1045A000521C102AF0D30F4A0E49203AA1F11000F4
:1045B00001F060F80B4A002103A8103A4418535C3C
:1045C000491C63711029F9D3401DFDF753FFE8889A
:1045D000ADF8000003A90098FDF776FFDEE70000C4
:1045E0008601002029050020B0000020F0B58FB022
:1045F0000C4618216846FDF790FE04F00300304C8D
:104600000126062720706670A51F8DF80070E888C7
:10461000ADF8340069460D98FDF756FF687800281C
:104620004BD0FFF701FA07AB06AA0BA901F066F819
:10463000022020701520607011208DF800000020ED
:104640008DF801008DF802708DF804708DF803006C
:104650006F46102207A9781DFDF746FE781DFDF76D
:1046600009FFE888ADF8340069460D98FDF72CFF86
:104670000F2060700B208DF8000007208DF80400DB
:104680009DF818008DF805009DF819008DF80600BA
:104690000B98CDF807000C98CDF80B00E888ADF822
:1046A000340069460D98FDF70FFFA01C06709DF8B9
:1046B000181041709DF8191081700FB0F0BD000006
:1046C00086010020094808B501F0030101700021AE
:1046D0004170801FC088ADF800000098FFF718F9FE
:1046E000BDE808400020FEF799BE000086010020CA
:1046F0001CB50AA00321006800900948017002213E
:104700004170801F6946C088ADF804000198FDF72C
:10471000DBFE0420FEF782FE1CBD0000020A000042
:10472000860100201CB509A10322096800910849EF
:104730000A7002224A708DF80100881F6946C088FD
:10474000ADF804000198FDF7BFFE1CBD0700000096
:10475000860100200EB50AA001F00301D0E9002077
:10476000CDE900200848017006214170801F69468C
:10477000C088ADF808000298FDF7A6FE0EBD000047
:104780000C079C0517200000860100202DE9F84346
:10479000184C6946A4F108022046FFF7E1FC9DF899
:1047A00000004FF0000926464FF0010818B986F8BE
:1047B000008086F801900F4F20781C3F00F0130115
:1047C00078780423C24303EA52021143C0F3800005
:1047D00041EAC001284661F30700617861F30F20C8
:1047E000A11C01F06BF886F8008087F80190BDE805
:1047F000F8830000E0000020FEB50C460021029185
:104800001D2C00D91D2401462246B148FDF76CFD40
:10481000B04FAF4D3C7028783C4600F00306A070C6
:10482000284600F0DFFF012E14D0032E18D0022EF0
:104830000FD129796A79A87901EB0221062957D08D
:10484000042970D0052904D1132802D00020FDF7D7
:10485000D3FEFEBD38780228FBD3FDF706FCFEBD73
:10486000AE78122E3AD2DFE806F00A0E1D22393950
:1048700027092C390939310939360909EFE7E81CCC
:1048800000F0EAF9FEBDA1789148FFF79DFC287A77
:10489000697A00EB0120ADF8080002A9E81C00F0DD
:1048A0000BFAFEBDA1788A48FFF70CFFFEBDA17888
:1048B0008748FFF7AFFCFEBDA1788548FFF796FE5D
:1048C000FEBDA1788248FFF71FFDFEBDA17880489C
:1048D000FFF740FFFEBDFFF779FCFEBD3046FFF756
:1048E00021FF7D4800780028F7D0152E08D8FEBD9E
:1048F000012808D003280BD004280ED00528F6D1B3
:10490000FFF7F6FEFEBDA1787148FFF725FDFEBD5D
:10491000A1786F48FFF77AFDFEBDA1786C48FFF7DC
:10492000F9FDFEBDFFE76B490C3110287BD00BDC95
:10493000A0F102020B2A17D2DFE802F01F1625169B
:104940003A16591691169B00614B6FF0020109331C
:10495000182867D004DC12287DD0162804D197E0EF
:104960001E28DED0522876D04106DAD40623002253
:104970000146A078FEF730FAD3E701460022A0787E
:10498000FEF74AFACDE7EA792B7A02EB032292B2DC
:104990000A806B7AAD7A03EB05239BB24B809A4277
:1049A00001D90123E4E70146A078FEF793FAB8E7BE
:1049B000EA792B7A02EB032292B20A806B7AAE7A02
:1049C00003EB06239BB24B809A42EAD8E97A2E7B0E
:1049D00001EB06216E7BAD7B89B206EB0525ADB2FE
:1049E000CDE900150146A078FEF731FA99E7EA799A
:1049F0002B7A02EB032292B20A806B7AAE7A03EB37
:104A000006239BB24B80EE7A2D7B9A4206EB05255E
:104A1000ADB28D80C5D801460095A078FEF712FB97
:104A20007FE700E03DE0EA792B7A02EB032292B2C5
:104A30000A806B7AAE7A03EB06239BB24B80EE7A48
:104A40002D7B9A4206EB0525ADB28D80A9D8014693
:104A50000095A07800E028E0FDF730FA61E7E979F9
:104A60002A7A01EB022189B2A180A278FDF78EFAA1
:104A700057E7E9792A7A01EB022189B2A1806A7AA3
:104A8000AB7A02EB032293B2A278FDF755FB48E71D
:104A9000E879297A00EB0120A0800D4800F09FFB07
:104AA0003FE70B4800F050FB3BE7EE78AA7801EBBC
:104AB00006211144EA792D7AC9B202EB052292B29D
:104AC000A28000910146A078FDF746FA29E7000090
:104AD00094040020C400002080010020034BC0F398
:104AE000072218705A700248FDF7FEBB84010020AF
:104AF000E4040020C2070D4801F00F010DD0072982
:104B000012D2DFE801F00707041111110400007848
:104B1000012809D10220FFF784BA0179142901D1B3
:104B200000210171FFF706BB70470000580100200B
:104B300070B50C46164908617AB174B12078951C9D
:104B400000F03F03901F04F10801072B11D2DFE8AA
:104B500003F00808081010100800BDE87040FFF7C7
:104B6000E9BAC2B26120FEF791FFE9B22046FDF733
:104B700077FDFFF7DFFA5320FEF76CFF05490420AD
:104B8000FEF786FFBDE870405620FEF763BF0000C9
:104B900058010020BF01002070B5124C06460D469A
:104BA000A078401CC2B2A270282A01D12520A07092
:104BB000A078FFF713FA2079132812D10A48006869
:104BC000291A0A480068301AFEF772FB0848007874
:104BD00018B1BDE87040FEF7FBBFBDE87040FEF7BE
:104BE00099BF70BD58010020480100204C010020F1
:104BF000B800002010B5084C2520A070FFF7EEF992
:104C0000E088FFF75DFA05480078800703D4BDE827
:104C10001040FFF7A0BA10BD580100205900002035
:104C2000FFF788BA38B50C460120FFF7FAF9094DAD
:104C30006889ADF800000098FFF7BFF905F118008A
:104C4000FFF716FA04F5A8542046EC60BDE838409A
:104C5000FFF727BA5801002030B5164B0122196A18
:104C60004A7002780A704278847802EB04224A8003
:104C7000C278047902EB042292B28A804479857961
:104C800004EB0524CC80C479057A04EB05240C815F
:104C9000447A807A04EB002080B200244881062AFE
:104CA00000D24C709A89801A47F6FF72904200DB5E
:104CB0004C7030BDBC01002010B5094B0A88D96981
:104CC000CA8004680C6000790871012048719889D5
:104CD000101A47F6FF72904201DB0020487110BDA8
:104CE000BC010020FDF7DABC2DE9F8430C4607466D
:104CF0000026DFF83C8014E0142C01D9142500E0D4
:104D00002546FEF797FE03280ED30095BB19B8F889
:104D100000201B21022000F02AFA7019C6B2601B85
:104D2000C4B20CB1002FE7D13046BDE8F8830000D3
:104D30003A00002070B50D4B00200D4D987158724F
:104D400003F13404012204EBD00100F007060978D6
:104D500002FA06F6314203D0597A6854491C597256
:104D6000401CC0B22528EED370BD0000BC0100205D
:104D7000B6060020C00706D10348017821F00401DF
:104D80000170FFF7D7B97047580000202DE9F041B6
:104D9000DFF8C08004461646B8F814000D4600EB54
:104DA00080004000FDF77AFC2B4F387820F0180087
:104DB00040F00400387015B16978B1B118E004F51D
:104DC0002A604546C8F82800FFF76BF91B2E00D96A
:104DD0001B26704204EBC010A0F5A0606862387812
:104DE00040F010003870BDE8F08140F008003870E5
:104DF00004F50160C8F82800FFF753F9704204EB8E
:104E0000C011A1F58061C8F824102878FDF71AFCBC
:104E100038782A78C0F38011C2F3C0029142E2D1FF
:104E2000012188F8001080F0400038700B4844469B
:104E3000006800688047002060705320FEF70AFE7B
:104E400004490420C91CFEF723FEBDE8F0415620AA
:104E5000FEF700BEBC01002058000020CC0000205E
:104E60002DE9F84F0F460646FEF75EFA934D0028EF
:104E7000DFF84492287833D0914CC1074FF00008F6
:104E80004FF0010B41D040F002002870E08900EBA8
:104E90008001282000EB0110FDF702FB3044206365
:104EA000FFF748FFE069464680F80580206A80F8F1
:104EB0000180A4F80C8084F80080FFF779F9A671CE
:104EC000E07940F271214843490001EB4000E08263
:104ED0000120FDF72CF999F80000022811D0A9E073
:104EE00020F0020028700020FDF7D0FB99F80000A8
:104EF000022802D18020FEF7D3FCBDE8F84F00F075
:104F0000ABBC8220FEF7CCFC94E0207878B16D49F0
:104F10000120FEF7F5FE6A466A490120FEF70CFF04
:104F20009DF800106748FFF767FC84F80080287838
:104F3000400731D5606A381A20F07F40FDF7A6FAA5
:104F4000371A28786FF04F0A00071AD5608AC0B167
:104F5000FEF776FDA8B1208A618A00FB010000EB14
:104F600080010AEB0110FDF79BFA38442063A18908
:104F7000608A0144A181A179227A02FB0010A0710C
:104F800008E0208A00EB80010AEB0110FDF788FAA7
:104F90003844206360893AE0208A082801D284F8E6
:104FA00002B049493D280F6807D200EB8001090192
:104FB00000EBC000A1EB101005E000EB80006FF0EB
:104FC000180101EB0010FDF76BFA38442063208ACA
:104FD000092806D26178484300EB400040F2DC51DA
:104FE00007E0112808D26178484300EB40004FF4F5
:104FF000FA6101EB40000AE03D2806D2617848439F
:1050000000EB400040F6C411F3E744F62060E08274
:10501000206B0A36B04200D22663A07820B92B4913
:10502000206B0988401A2063A089401CA081206B56
:10503000FDF7FCF9A079217A0844C0B22521B0FB24
:10504000F1F201FB12001E49A071343101EBD001D5
:1050500000F007030A780BFA03F10A4207D1617ADC
:10506000B0FBF1F201FB120016492539085C6071B2
:1050700099F80000022805D12878800702D500F0B1
:10508000EBFB01E0FDF77CFA2878C10704D020F0A3
:105090000100287000200BE0A07830B10020FDF75F
:1050A000F5FA84F80280BDE8F88F208A00EB9000C2
:1050B000BDE8F84FFDF7EABA0B01002058000020C8
:1050C000BC010020DB0600204C0100200E01002066
:1050D00004480078C00603D500210846FFF74ABE01
:1050E000FFF728B85800002070B50D46FDF736FAD6
:1050F00048B9134C6078322805D8218A4143A08AE8
:10510000B1EBC00F06D90020FEF788F9BDE870406A
:10511000FFF710B80420FEF784FFA17805F5C3500F
:1051200039B90849098801EB4102C2EBC11100EB12
:105130004100FEF7B6FF6078401C607070BD000053
:10514000BC0100200E010020022161F307020521AD
:1051500010B561F30F220121817019218171811C29
:105160001046FDF772FEBDE81040FCF7D8BF2DE9F0
:10517000F04389B08946109C064698461746E51CC0
:1051800024216846FDF7C9F8304606F0130161F3A3
:105190000700E11D61F30F208DF80050290A8DF8FA
:1051A000011004218DF8021000218DF803108DF8F4
:1051B00004908DF80570390A8DF8061000216A46B2
:1051C00005E018F801305518491CEB71C9B2A1422D
:1051D000F7D31146FDF739FE09B0BDE8F0832DE99C
:1051E000F0410446837AC178057A4FF6FF7000EAF1
:1051F0000526E579677A354300EA012600EA0320AF
:1052000007430220A17860F307026078314360F31E
:105210000F22491F17208EB2A071A11C1046FDF766
:1052200014FE3B46324604F10B012846BDE8F0412E
:10523000FCF774BF1CB508A100F00300D1E90031F0
:10524000CDE9003160F307020521104661F30F201C
:105250006946FDF7FAFD1CBD0100040013000000C3
:105260002DE9FF411400054665D08DF80010080AAD
:105270008DF80100080C8DF80200080E8DF803006F
:1052800080208DF804002D4900206A460B5C16181A
:10529000401C73710828F9DB294B002003F110072B
:1052A00003F1200606EB000C115C8CF8011007EBF3
:1052B000000C8CF8011003EB000C401C8CF8011062
:1052C0000D28EFDB01203070387018700021B173A9
:1052D000B9739973D973F87302201949F07350396F
:1052E0001748FEF7BFFB1649503901F16000FEF781
:1052F000B9FB102C05D91249503901F17000FEF7A5
:10530000B1FB2146102C00D91021002004E02A5CBA
:105310003B5C5A402A54401C8842F8DB102C0AD9C6
:105320000020103C05E02918335C0A7C5A400A74BE
:10533000401CA042F7DBBDE8FF810000B401002063
:1053400079060020014A9070D170704780010020DA
:1053500070B50B4B0B4C002228B1855C9D54851811
:105360009E182D7A357209B18D5CA554521C082AFD
:10537000F2DB044900200C394860886070BD0000F1
:1053800029060020B40100202DE9FF5F1D00DDF893
:1053900038E00C46064671D08DF80020100A8DF8D2
:1053A0000100100C8DF80200100E4FF0000A8DF86D
:1053B000030089498DF804A050466A460B5C171813
:1053C000401C7B710828F9DB844B914603F11002E5
:1053D0000021A3F1400C02F110000CEB010819F8B8
:1053E000017088F8017000EB010888F8017002EB89
:1053F000010888F8017003EB0108491C88F8017066
:105400000D29EADB49218CF8001074488CF80EA0B5
:10541000E0468CF80F5020304FF0010CA0F1100244
:1054200080F800C082F800C083F800C080F80EA0A9
:1054300082F80EA083F80EA083F80FA082F80FC0A8
:105440009B460222C273654B0020303B03F11002E1
:10545000514602F11007195411543954401C1028B8
:10546000F9DB5E4829463038102D80F801C080F8FD
:1054700002E000D910210020924604E0AAE0335C4B
:105480000AF80030401C8842F9DBA5F11009102D04
:1054900008D94946002003E03218127C3A54401CD7
:1054A0008842F9DB4D49503901F11000FEF7DAFA74
:1054B0004A4A00204146303A11F800C0135C904639
:1054C00083EA0C031354401C1028F5DB4349503980
:1054D00001F12000FEF7C6FA41460020D04611F83F
:1054E00000C018F8002082EA0C0208F80020401CD6
:1054F0001028F4DB3949503901F13000FEF7B2FAD7
:10550000102D0BD898F80010217098F801106170D8
:1055100098F80210A17098F8030015E000204146A9
:105520003A5C0B5C5A403A54401C1028F8DB2B497B
:10553000503901F14000FEF795FA387820707878FC
:105540006070B878A070F8782449E070503923482A
:10555000FEF788FA2149503901F16000FEF782FA1E
:10556000102D05D91D49503901F17000FEF77AFA66
:1055700021789BF800205140217061789BF8012030
:1055800051406170A1789BF802205140A170E178F0
:105590009BF803004140E1702946102D00D91021ED
:1055A0000E4B0020103304E0325C1C5C624032542D
:1055B000401C8842F8DB102D0CD9084A00204C46CC
:1055C000203205E03118155C0B7C6B400B74401CDD
:1055D000A042F7DBBDE8FF9FB40100207906002060
:1055E0002DE9F041224DDDE9066C089F2970044643
:1055F0006A7000216818725C42725A5C491C8270A1
:105600000729F7DB00201A4E014610363154401CA2
:105610001028FBDB00203218395C31541CF80010D4
:10562000401C91710628F6DB1148FCF723FF104857
:105630001030FCF71FFF0020215C2A5C51402154F0
:10564000401C1028F8DB0A4920461039FEF70AFAF8
:105650000020215C325C51402154401C1028F8DBB2
:105660002046BDE8F04102491039FEF7FBB90000C1
:105670000906002030B40023C418D518247AD45465
:10568000CC185B1C247A2C72082BF5DB30BC024949
:105690001046FEF7E7B90000F905002030B40546D2
:1056A0000C46002001461954401CC0B20D28FAD304
:1056B0005A73207898736078D873294630BC18469E
:1056C000FEF7D0B92DE9FF410D46144600210A46E8
:1056D0006B465F185A546E5C491CC9B23E72082969
:1056E000F7D301461846FEF7BDF99DF80E0020706D
:1056F0009DF80F006070BDE8FF8100002DE9F043C8
:105700000D461EA189B08046086899461446089047
:1057100004AB002208A91A48FFF7C0FF194E6F46D4
:1057200004A930780DF800803846FEF79BF9002078
:10573000395C2954401CC0B20828F9D322462946B6
:1057400004A8FFF7BFFF20789DF809104B4648409A
:10575000207060789DF80A10002248406070084868
:105760000DF109011038FFF799FF3078401C00F067
:105770000F00307009B0BDE8F083000000030000A6
:105780008F5B0008A801002070B50C4613A186B0FD
:10579000064608681546059001AB002205A9104889
:1057A000FFF77CFF6A46314601A8FFF78BFF9DF8A3
:1057B000000021782B4648408DF800009DF801003C
:1057C0006178002248408DF801000548694610388C
:1057D000FFF764FF06B0012070BD00000003000069
:1057E0008F5B000870B504460C480078002814D080
:1057F0006078002811D02178094D001F01F00303C3
:10580000C2B2A01C6968FFF72BFD6868401C686085
:105810006078052801D3001F607070BD80010020F2
:10582000A8010020F8B50B780D460446002B0FD0D8
:10583000084EA01C00921918B268FFF7A5FD287841
:10584000001D28706078001D6070B068401CB0605A
:10585000F8BD0000A801002010B500F045F8084888
:105860000078800707D40648401C0078800702D4DF
:105870000020FCF75CFCBDE81040FDF74BBD0000CC
:105880005800002010B586B016230B4ACDE903233B
:10589000A2F1420300245A8AADF808200094019432
:1058A0000A461B694FF40071FDF750FD06B0BDE8D4
:1058B0001040FDF761BD00009A00002070B50E4653
:1058C0000546FEF717FCC5F307241CB121463046F8
:1058D000FEF70BFC2046FCF7F9FE31462846BDE8F2
:1058E0007040FFF7FBB8000030B585B003A8FCF7A7
:1058F0000DFC9DF80C10182902D918218DF80C10F8
:10590000194BCAB2511C1970002104E0445C5D18A7
:10591000491CAC70C9B29142F8D3002003E0991839
:10592000521C8870D2B2192AF9D30F4A0723D21F0A
:10593000D11DA1F127051B20AC780CB10B4A2346E1
:10594000EC7814B1094920461F31CDE90110E889EE
:10595000ADF800006889ADF81000A8890499FDF73A
:10596000C3FC05B030BD00007F00002068020020AD
:105970000201060319410307030D180A180F180046
:1059800003280300020400002AFF0328080002097C
:1059900000292AFF03280A00020B00262AFF0328F9
:1059A0000E00020F00282AFF0328110010120037F2
:1059B0002AFF022913000A00000000000328140037
:1059C000021500382AFF03281700121800192AFFB1
:1059D000022919000A000000000000000000000079
:1059E000000000000000000000000D180000000092
:1059F00000000000000000000000000000000000A7
:105A0000000000000000000000000F18000000006F
:105A10000000000000000000000000000000000086
:105A20000000000000000000000000008D4700089A
:105A3000000000009D28000801290008FD2600083C
:105A400025270008C9280008AD270008000000002D
:105A5000F54B0008254C0008F54A0008314B0008BA
:105A6000214C0008994B0008B1A87710B1A8771015
:105A7000F5D4B310637C777BF26B6FC53001672B75
:105A8000FED7AB76CA82C97DFA5947F0ADD4A2AF32
:105A90009CA472C0B7FD9326363FF7CC34A5E5F140
:105AA00071D8311504C723C31896059A071280E2EE
:105AB000EB27B27509832C1A1B6E5AA0523BD6B342
:105AC00029E32F8453D100ED20FCB15B6ACBBE39B2
:105AD0004A4C58CFD0EFAAFB434D338545F9027F9E
